:020000040800F2
:100000000050002075230008211E0008231E000850
:10001000251E0008271E0008291E000800000000F9
:100020000000000000000000000000002B1E00087F
:100030002D1E0008000000002F1E0008311E0008C1
:10004000BD230008BD230008BD230008BD23000810
:10005000BD230008BD230008BD230008BD23000800
:10006000BD230008BD230008BD230008BD230008F0
:10007000BD230008BD230008BD230008351E00086D
:10008000BD230008BD230008BD230008BD230008D0
:10009000BD230008BD230008BD230008BD230008C0
:1000A000BD230008BD230008BD230008BD230008B0
:1000B000411E0008BD230008BD230008BD23000821
:1000C000BD230008BD230008BD230008BD23000890
:1000D000BD2300088D1C0008BD230008BD230008B7
:1000E000BD230008BD230008BD2300080000000058
:1000F0000000000000000000000000000000000000
:0C01000000000000000000005FF808F1A3
:10010C0010B5054C237833B9044B13B10448AFF345
:10011C0000800123237010BDE801002000000000C6
:10012C008826000808B5034B1BB103490348AFF3FD
:10013C00008008BD00000000EC01002088260008AB
:10014C0010F8012B11F8013B012A28BF9A42F7D075
:10015C00D01A7047034613F8012B002AFBD1181A4A
:10016C000138704738B50E4B054618784FF47A7342
:10017C00B3FBF0F30B4A1068B0FBF3F000F0A0F8FF
:10018C00044658B90F2D09D8024629464FF0FF30C6
:10019C0000F054F8044B20461D6038BD012038BDDA
:1001AC00000000201400002004000020074A08B5BD
:1001BC001368032043F01003136000F02DF80020A7
:1001CC00FFF7D0FF01F078FD002008BD00200240B1
:1001DC00034A044B11681B780B441360704700BF33
:1001EC001C03002000000020014B1868704700BF62
:1001FC001C03002038B50446FFF7F6FF0546631CC8
:10020C001EBF044B1B78E418FFF7EEFF401B844223
:10021C00FAD838BD00000020074A0002D36800F469
:10022C00E06023F4E0631B041B0C43F0BF6343F456
:10023C0000330343D360704700ED00E0174B30B53B
:10024C00DC68C4F30224C4F10703251D042B28BF6A
:10025C000423062D4FF0010598BF002405FA03F383
:10026C0003F1FF3388BF033C1940A14005FA04F4A5
:10027C00013C2240002842EA01024FEA0212A9BFC7
:10028C0000F16040064BD2B200F56140BBBF00F0FC
:10029C000F00D2B280F800231A5430BD00ED00E0FC
:1002AC0014ED00E0002808DB0123420900F01F00D8
:1002BC0003FA00F0014B43F82200704700E100E024
:1002CC000138B0F1807F0AD2F021064B064A586003
:1002DC0082F823100020072298601A6070470120D2
:1002EC00704700BF10E000E000ED00E010B530B347
:1002FC0014220168134B84680B44B3FBF2F39B008C
:10030C000364114B0A68C363436822F47F5223438E
:10031C00C46822F030022343046923434469234315
:10032C0084692343C469234313430B6001220023D4
:10033C0080F82120836380F82030184610BD0120FE
:10034C0010BD00BFF8FFFDBF00000240F0B590F8F3
:10035C002040012C35D0012490F8215080F8204009
:10036C00A5424FF000064FF0020428D180F821403E
:10037C00046886632668076C26F001062660C66B47
:10038C00BD407560636043680568102BC36A0BBF82
:10039C00A260A160E160E2604BB1236843F00E0300
:1003AC0023602B68002043F001032B60F0BD236811
:1003BC0023F004032360236843F00A03F0E780F87A
:1003CC0020600220F0BD000070B40425C66B026CE6
:1003DC003468036895402542196832D04D0730D5F2
:1003EC001A6896065EBF1A6822F004021A603E4A2A
:1003FC00934219D01432934218D01432934217D02E
:10040C001432934217D01432934217D014329342C1
:10041C000CBF4FF480034FF08063344A5360C36ABF
:10042C00002B5ED070BC18470423F6E74023F4E79A
:10043C004FF48063F1E74FF48043EEE74FF48023F1
:10044C00EBE702259540254235D08D0733D51A6848
:10045C00940606D41A6822F00A021A60012280F867
:10046C002120214A934219D01432934218D01432CD
:10047C00934217D01432934217D01432934217D0B0
:10048C00143293420CBF4FF400134FF00073174A11
:10049C005360002380F82030836AC1E70223F6E71B
:1004AC002023F4E74FF40073F1E74FF40053EEE729
:1004BC004FF40033EBE708259540254211D009078E
:1004CC000FD5196821F00E011960012303FA02F20D
:1004DC007260836380F82130002380F82030036B36
:1004EC009EE770BC704700BF08000240000002404D
:1004FC002DE9F74F00242646664BDFF8A8E1DFF81C
:10050C00A8C10A6832FA06F502D103B0BDE8F08F33
:10051C004FF0010808FA06F802EA080290457FD16C
:10052C004D68122D00F0AA8000F28380022D00F09D
:10053C00A28077D8002D00F08980012D00F09980E1
:10054C004FF00F09FF2A93BF824606F18045083D04
:10055C00D0F800B092BFB500D0F804B0AD0009FAE5
:10056C0005F82BEA080804FA05F588BF00F1040A1F
:10057C0048EA0505CAF80050D1F804A01AF0805FCB
:10058C004ED0454D444FAD6926F0030845F00105AA
:10059C00BD61BD6908F1804805F00105019508F5BC
:1005AC00803806F0030B019D4FEA8B0BD8F80850EE
:1005BC0009FA0BF925EA0909384DA84263D005F56B
:1005CC008065A84261D005F58065A8425FD005F52D
:1005DC008065A8420CBF0325042505FA0BF545EAF6
:1005EC000905C8F808501D681AF4803F14BF15435C
:1005FC0095431D605D681AF4003F14BF1543954385
:10060C005D609D681AF4801F14BF154395439D606F
:10061C00DD681AF4001F14BF2A4325EA0202DA60CF
:10062C0001366EE7032D22D0112D89D1CC6804340C
:10063C0086E71B4FBD4209D012D8DFF870904D45AC
:10064C0004D009F580394D457FF47AAF8C68C4B17C
:10065C00012C0CBFC0F81080C0F8148008246FE780
:10066C007545F3D06545F1D0DFF84490EBE70024F5
:10067C0066E7CC6864E7CC68083461E7CC680C3476
:10068C005EE704245CE70025A7E70125A5E7022522
:10069C00A3E700BF00040140001002400008014025
:1006AC000000211000003110000032100000111069
:1006BC00000022100AB1016170470904FBE738B54C
:1006CC000446D8B14CF6CC4203681A6045F2555238
:1006DC001A6042685A6082689A60FFF785FD054689
:1006EC002368D86818B94AF6AA221A6038BDFFF7F1
:1006FC007BFD401B3028F3D9032038BD012038BDC9
:10070C004AF6AA22036800201A6070472DE9F341CB
:10071C00054608B901203CE00368DB0710D42B68C0
:10072C009F075DD42B68190700F194802B685A073A
:10073C0000F1BE80E869002840F02C81002028E000
:10074C008F4C636803F00C03042B07D0636803F031
:10075C000C03082B09D16368DE0306D523689C03C0
:10076C00DDD56B68002BDAD1D4E76B68B3F5803F2D
:10077C0012D1236843F480332360FFF735FD06461E
:10078C0023689803CBD4FFF72FFD801B6428F7D97F
:10079C00032002B0BDE8F0819BB9236823F48033B9
:1007AC002360236823F480232360FFF71DFD064696
:1007BC0023689903B3D5FFF717FD801B6428F7D97D
:1007CC00E6E7B3F5A02F236803D143F4802323601D
:1007DC00CFE723F480332360236823F48023CBE713
:1007EC00674C636813F00C0F07D0636803F00C03BD
:1007FC00082B10D16368DA030DD423689B0702D54C
:10080C002B69012B86D123686A6923F0F80343EA2C
:10081C00C203236086E72A695A4B6AB101221A6027
:10082C00FFF7E2FC064623689F07ECD4FFF7DCFCDD
:10083C00801B0228F7D9ABE71A60FFF7D5FC0646F8
:10084C00236898077FF56EAFFFF7CEFC801B02285C
:10085C00F6D99DE7AA694A4C4B4BDAB101221A60D2
:10086C00FFF7C2FC0646636A9B070DD54FF4FA529C
:10087C00464B1B68B3FBF2F3019300BF019B5A1E5E
:10088C000192002BF9D151E7FFF7AEFC801B022837
:10089C00E9D97DE71A60FFF7A7FC0646636A9F0754
:1008AC007FF544AFFFF7A0FC801B0228F6D96FE759
:1008BC00334CE369D80024D40127E36943F0805317
:1008CC00E361E36903F080530093009B304E33687F
:1008DC00D90518D5EB68012B26D1236A43F0010307
:1008EC002362FFF781FC41F288368046236A9B071E
:1008FC003FD5002F3FF41EAFE36923F08053E36133
:10090C0018E70027E2E7336843F480733360FFF79E
:10091C006BFC80463368DA05DCD4FFF765FCA0EB92
:10092C0008006428F6D933E7ABB9236A41F288385A
:10093C0023F001032362236A23F004032362FFF7ED
:10094C0053FC0646236A9807D3D5FFF74DFC801B52
:10095C004045F7D91CE7052B236A03D143F0040368
:10096C002362BAE723F001032362236A23F0040312
:10097C00B6E7FFF739FCA0EB0800B042B6D907E7A1
:10098C000010024000004242800442421400002049
:10099C00007000402A4B5A681C4602F00C02082AD0
:1009AC003DD00023274E022833602BD1FFF71CFCCF
:1009BC000746236899011FD42B6AB3F5803F05D1F4
:1009CC006268A96822F400320A436260696A62684C
:1009DC000B4322F474121343636001233360FFF75B
:1009EC0003FC054623689A013FF5A8AEFFF7FCFB14
:1009FC00401B0228F6D9CBE6FFF7F6FBC01B0228FA
:100A0C00D7D9C5E6FFF7F0FB054623689B017FF5B8
:100A1C0095AEFFF7E9FB401B0228F6D9B8E6012892
:100A2C003FF4B7AE58682B6A00F480329A427FF4D8
:100A3C0071AE6B6A00F47010C01A18BF0120A8E6E2
:100A4C00001002406000424230B5194B87B002AC36
:100A5C0003F11005224618685968083303C2AB42EB
:100A6C001446F7D101238DF80430022311498DF877
:100A7C0005304B6803F00C02082A17D1C3F38342EC
:100A8C0006A80244DB0312F8102C0CD54B680A485C
:100A9C00C3F34043504306AA134413F8143CB0FB71
:100AAC00F3F007B030BD05485043FAE70248F8E7C9
:100ABC00A02600080010024000127A0000093D0038
:100ACC002DE9F0410D46044610B90120BDE8F08136
:100ADC00454A136803F007038B4229D321688E071C
:100AEC0031D4CA0744D4404A136803F007039D422B
:100AFC0067D322683D4D12F0040F6ED1130706D553
:100B0C006B68226923F4605343EAC2036B60FFF7FE
:100B1C009BFF6B68364AC3F30313D35CD840354B49
:100B2C001860354B1868FFF71DFB0020BDE8F081FD
:100B3C00136823F007030B431360136803F00703D8
:100B4C009942C2D1CAE7294B11F0040F1EBF5A6853
:100B5C0042F4E0625A60080742BF5A6842F460529D
:100B6C005A605A68A06822F0F00202435A60B8E753
:100B7C0062681E4E012A33681BD113F4003FA4D0C7
:100B8C00736841F2883823F0030313437360FFF753
:100B9C002BFB07467368626803F00C03B3EB820F00
:100BAC00A1D0FFF721FBC01B4045F3D90320BDE8C2
:100BBC00F081022A02D113F0007FE0E713F0020F5C
:100BCC00DDE7136823F007032B431360136803F06E
:100BDC0007039D427FF479AF8BE76B68E16823F4E0
:100BEC00E0630B436B6089E7002002400010024079
:100BFC00E12600081400002004000020044B054AE4
:100C0C005B68C3F30223D35C034A1068D840704777
:100C1C0000100240F126000814000020044B054A85
:100C2C005B68C3F3C223D35C034A1068D840704797
:100C3C0000100240F126000814000020022380F866
:100C4C003D3003689A6802F00702062A1EBF1A6834
:100C5C0042F001021A60012380F83D3000207047F9
:100C6C0003680020DA6842F00102DA609A6802F048
:100C7C000702062A1EBF1A6842F001021A6070476A
:100C8C000368DA6822F00102DA6041F21112196A83
:100C9C00114208D140F24442196A114202BF1A684B
:100CAC0022F001021A6000207047704770477047AD
:100CBC007047036810B51A69044691070ED5DA68B7
:100CCC0092070BD56FF002021A6101229B69027721
:100CDC009B0777D0FFF7EAFF0023237723681A6975
:100CEC00500710D5DA6851070DD56FF004021A6160
:100CFC0002229B69227713F4407F204668D0FFF7CD
:100D0C00D5FF0023237723681A6912070FD5DA68F9
:100D1C0010070CD56FF008021A610422DB692277E8
:100D2C00990720465AD0FFF7C1FF00232377236889
:100D3C001A69D20610D5DA68D0060DD56FF01002FC
:100D4C001A610822DB69227713F4407F20464BD0CE
:100D5C00FFF7ACFF0023237723681A69D10708D566
:100D6C00DA68D20705D56FF0010220461A6100F04F
:100D7C008DFF23681A69100608D5DA68110605D5A7
:100D8C006FF0800220461A6100F045F923681A6959
:100D9C00520608D5DA68500605D56FF04002204699
:100DAC001A61FFF785FF23681A69910622D5DA6864
:100DBC0092061FD56FF020022046BDE810401A6144
:100DCC0000F028B9FFF771FF2046FFF770FF83E7AB
:100DDC00FFF76BFF2046FFF76AFF92E7FFF765FF0F
:100DEC002046FFF764FFA0E7FFF75FFF2046FFF701
:100DFC005EFFAFE710BD00001A4A036890420AD0AC
:100E0C00B0F1804F07D0A2F59432904203D002F596
:100E1C008062904215D14A6823F070031343114A43
:100E2C0090420AD0B0F1804F07D0A2F59432904294
:100E3C0003D002F58062904203D1CA6823F4407358
:100E4C0013434A6923F08003134303608B68C36226
:100E5C000B688362034B984204BF0B690363012345
:100E6C0043617047002C014010B50446A0B190F8C6
:100E7C003D3003F0FF021BB980F83C2000F03EFF30
:100E8C000223206884F83D30211DFFF7B5FF0123B4
:100E9C00002084F83D3010BD012010BD10B58468D1
:100EAC000A4324F47F4442EA03232343836010BDA6
:100EBC0090F83C3070B5012B04464FF0020019D06D
:100ECC00012384F83D00206884F83C30836823F4C7
:100EDC007F4323F0770383600B68402B65D015D8D4
:100EEC00102B0CD007D853B10123002084F83D30CF
:100EFC0084F83C0070BD202B01D0302BF4D18268DB
:100F0C0043F0070322F0700213431AE0602B34D035
:100F1C0019D8502BE8D14A68CE68016A056A21F0CD
:100F2C000A0125F00105056283690A4323F0F003E9
:100F3C0043EA061383610262836823F0700343F073
:100F4C0057038360D0E7702B0CD0B3F5005FCBD187
:100F5C00CB684A688968FFF7A1FF2268936843F45D
:100F6C00804308E0CB684A688968FFF797FF2268DE
:100F7C00936843F077039360B6E74D68CE68016AD7
:100F8C0021F0100101628269036A22F4704223F09D
:100F9C00A00343EA051342EA0632826103628368C6
:100FAC0023F0700343F06703CBE74A68CE68016A0D
:100FBC00056A21F00A0125F00105056283690A43DF
:100FCC0023F0F00343EA061383610262836823F083
:100FDC00700343F04703B4E790F83C3030B5012B75
:100FEC004FF0020314D0046880F83D306268A368A7
:100FFC000D68496822F0700223F080030B432A43EA
:10100C006260A360012380F83D30002380F83C30FF
:10101C00184630BD7047704738B505460368C1683F
:10102C001A69192422F440520A431A618268006931
:10103C00D9680243686921F4B05121F00C010243D4
:10104C000A43DA605A69A96922F440720A435A6168
:10105C000D4A934214D1FFF7E1FD60436C686422A2
:10106C00A400B0FBF4F0B0FBF2F402FB14031B0180
:10107C003233B3FBF2F3296803EB04138B6038BDF6
:10108C00FFF7BCFDE9E700BF0038014010B504468E
:10109C0040B390F8393003F0FF021BB980F83820C8
:1010AC0000F074FE2423226884F83930D36820467B
:1010BC0023F40053D360FFF7AFFF236800201A69B5
:1010CC0022F490421A615A6922F02A025A61DA68B3
:1010DC0042F40052DA602023E06384F8393084F85B
:1010EC003A3010BD012010BD034B1A78012AFCD0F8
:1010FC0001221A70704700BF940200204FF47F0346
:10110C001A4A70B513614FF4004313611023184948
:10111C00184C0B612068C8604FF4801008614FF0C8
:10112C0000411161226801320F2A226007D9002682
:10113C00114D26602B7813B100F0A8FE2E7020689C
:10114C00C0B200F0ADFE00220C4B18600C4B1B68BB
:10115C005A62226822B90B4B197809B11A7070BD0A
:10116C000748BDE87040FFF77BBD00BF0008014099
:10117C00000C01400C02002094020020040200200C
:10118C00CC0F002009020020F0B5E1B04FF4C07282
:10119C000021684601F08DF98248FEF7DBFF002440
:1011AC00804A80B2A3B2984205D89DF800302BB982
:1011BC00012061B0F0BDA35C2C2B20D17A4968468C
:1011CC00FEF7BEFF05460028F2D101464FF4CE7261
:1011DC00764801F06EF9764B4FF4C0721C442946E8
:1011EC00684601F066F92046FEF7B4FF80B2ABB258
:1011FC009842264607D89DF8003043B9D8E70DF839
:10120C0004300134CEE714F8013B2C2B1FD1684677
:10121C0001F01CF90128CBD8684601F017F9654C90
:10122C004FF4C07284F8A00101360021684601F029
:10123C0040F93046FEF78EFF3346002280B291B261
:10124C0088421D4607D89DF8003043B9B0E70DF829
:10125C0005300135CBE713F8011B2C291AD11022CC
:10126C000021684601F0D2F901354FF4C07200211B
:10127C000746684601F01DF92846FEF76BFF2B4622
:10128C00002280B291B288421E4609D89DF80030E7
:10129C0053B98DE72A29E2D00DF802100132CEE7BE
:1012AC0013F8011B2C2947D110220021684601F0AC
:1012BC00ADF994F8A031BDB2012B07F0070784F803
:1012CC00A2713FD1002384F8A3314FF47A73C5F394
:1012DC0087155D43C4F82453FEF786FFD4F82433F6
:1012EC001844C4F8240394F8A051FDB97378222B48
:1012FC007FF45EAF29464FF4C0720236684601F0A7
:10130C00D8F83046FEF726FF294680B28BB29842B9
:10131C0039D89DF80030002B3FF44AAF6846FEF7F1
:10132C0019FF69460246244801F0B8F894F8A30165
:10133C0080BB012323703CE72A29B5D00DF802109D
:10134C0001329FE7002BCED183B2C5F3401284F853
:10135C00A321C3F3C202C5F3C10584F82A23C3F346
:10136C000322013500F0070084F82D23C3F381120A
:10137C00C3F3013384F8A15184F8290384F82B2397
:10138C0084F82C33AFE7735C222BC7D00DF80130F7
:10139C000131BBE74FF4CE720449881801F07EF896
:1013AC00002006E7CA0D0020DA2600084C050020B4
:1013BC00CB0D0020AC0300205005002038B5084CA4
:1013CC0005462046FEF7C6FEA84206D90A2160193A
:1013DC0001F086F808B1001B38BD4FF0FF3038BD66
:1013EC00B40300202DE9F0410D46144680460C480C
:1013FC00FEF7B0FEA54282BF2B4625461C46A842EE
:10140C000BD3844228BF04460023054E4046A75DFB
:10141C007119A35501F072F8A755BDE8F08100BF12
:10142C00B403002010B590B02822002106A801F0CA
:10143C0040F80021142201A801F03BF8092306937F
:10144C004FF480330122022407930E934FF4E013E0
:10145C0006A80A920C920F930D94FFF757F90F23DD
:10146C004FF4806201930023214601A80294039358
:10147C0004920593FFF724FB10B010BD2DE9F04F3B
:10148C00BF4D97B0FEF792FEFFF7CCFF1022002164
:10149C000EA801F00EF8AB69012243F01003AB610A
:1014AC00AB694FF4005103F010030893089BAB6930
:1014BC00B44843F02003AB61AB69002403F0200374
:1014CC000993099BAB694FF0010843F00403AB612E
:1014DC00AB69032603F004030A930A9BAB694FF430
:1014EC00805943F00803AB61AB69A74F03F00803C5
:1014FC000B930B9BFFF7DEF8002248F28301A34805
:10150C00FFF7D8F800221F21A148FFF7D3F84FF4BA
:10151C0000530EA99B480E9310941196CDF83C8065
:10152C00FEF7E6FF4FF440430EA996480E930F9634
:10153C00FEF7DEFF48F283030EA994480E93109435
:10154C001196CDF83C80FEF7D3FF41F67C130EA923
:10155C008E480E930F96FEF7CBFF1F230EA98C48D7
:10156C000E9310941196CDF83C80FEF7C1FF4FF608
:10157C00E0730EA986480E930F96FEF7B9FF6B69C0
:10158C00224643EA08036B616B69062103EA0803F0
:10159C0007930F20079BFEF751FE0F20FEF782FEEC
:1015AC00102221460EA800F084FF7A4D7A4B284673
:1015BC0085E818000B230C94EB600D94AC602C6147
:1015CC006C61AC61FFF750FC0EA92846CDF8389041
:1015DC00FFF76EFC0CA9284604260C940D94FFF71B
:1015EC00FBFC4FF4164E6D486D4B846080E8084050
:1015FC00C460046146618461C461FFF747FD694BB7
:10160C00384687E8480040F27123BB60FFF757F873
:10161C00102221460EA800F04CFF4FF08043624E82
:10162C000C9486E8180043F63F033046F360B46030
:10163C003461B4610D94FFF717FC0EA93046CDF858
:10164C003890FFF735FC20230CA930460C930D94F1
:10165C00FFF7C2FC3846FFF753F800F04FFC20466A
:10166C0000F01EFC514B2A681860D368284643F4DE
:10167C008073D3604E4A4F4B9A62FFF7DFFA3046C5
:10168C00FFF7EEFA3846FFF73BF8204600F014FC63
:10169C0049490EA800F032FF21460524474ECDF8EB
:1016AC000480CDF8008007230EAA2B2000F0D2FD79
:1016BC0086F800803846FFF723F8013C6420FEF7DB
:1016CC0099FD14F0FF04F5D1204600F0F5FB012341
:1016DC003370337803F0FF05002BFAD1384C2946D0
:1016EC004FF4CE7204F54F702570657000F0E1FE7A
:1016FC0029464FF4CE72201D00F0DBFE4FF4CE7263
:10170C00294604F5D07000F0D4FE0126022384F89B
:10171C003E6384F83D3384F83F63FEF765FD00F5C6
:10172C000840B8302749C4F8C00404F5507000F0E4
:10173C00E5FE84F8C75484F8C55484F8C65422488E
:10174C0084F8C96400F05DFEFEF74EFD1F4D00F5F8
:10175C00FA60C4F8880100260B48FEF7D1FF1A483E
:10176C008DF830608DF8316000F065FE00283CD0BB
:10177C00154800F05DFE24288DF8300052D127E08A
:10178C00001002400010014020030020000801401E
:10179C00000C01406C030020002C01402C030020A5
:1017AC000038014000300040CC0F00200402002023
:1017BC000911000884080020B026000894020020BB
:1017CC00AC030020B8260008080000200802002006
:1017DC004FF400723146B84800F06BFE0CA9B648C5
:1017EC0000F06FFE0EB1FFF7CFFC23782BB394F80B
:1017FC00A031002B52D1E379CBB1B0494FF4CE726A
:10180C00A1F5CE7000F04AFEFEF7EEFC03236370E8
:10181C00002300F50840B830C4F8880184F88C31F6
:10182C0023700AE0A0F12A077E427E41D6E7237995
:10183C001BB994F88C31072BDFD06378012B13D0B4
:10184C00FEF7D2FCD4F8883198420DD39C494FF462
:10185C00CE72A1F54E7000F021FE00230122C4F8D7
:10186C008831627084F88C312379002B7FF473AF4C
:10187C0094F88C21062A00F2DB8001A151F822F0A9
:10188C00CD180008E719000863170008431A000870
:10189C00131C0008231C0008771C0008012BCCD15A
:1018AC0086494FF4CE72A1F5CE7000F0F7FD0223FD
:1018BC00A079637000F000FBFFF716FC0023AFE784
:1018CC0094F89021C4F89431012A1FBF6379C3F1B5
:1018DC0002025B0803EB8203C4F8983194F891314F
:1018EC00033B012B28D8002640F2025200217548F8
:1018FC0000F0DFFDB146734FDFF8CCB14846FFF77F
:10190C005DFD00284FEAC61A09F1010027DAFFF73E
:10191C0055FD0028BA4402DA6B48FEF71BFC024660
:10192C0049465046FFF75EFD0023013687F80165F6
:10193C00C4F89831C4F8943194F88D31012B25D02A
:10194C00022B44D04FF47A73C4F89C3194F8913143
:10195C00002B40D1A379002B3DD107231BE0FFF7CF
:10196C002DFD07EB0A08B0F1000A0DDA5846FEF718
:10197C00F1FB0246494640460136FFF733FD0A2E7D
:10198C000AF10109BAD1CFE75246F3E7FA22C4F8BB
:10199C009C2100222A7084F88C3194F89131012B0F
:1019AC007FF4D9AE002000F087FA4748FEF7D2FB4F
:1019BC006379454A0193A3790093D4F898110346AF
:1019CC00D4F8940100F046FCFFF78EFBC3E68023AD
:1019DC00C4F89431B6E70323DDE7FEF705FCD4F831
:1019EC009C319842FFF4B7AE002000F065FA2B78DA
:1019FC00D8070ED53448FEF7ADFB6379324A019314
:101A0C00A3790093D4F898110346D4F8940100F00C
:101A1C0021FCFFF769FBFEF7E7FB2B78FA3001336B
:101A2C00DBB2052BC4F89C012B707FF694AE03231C
:101A3C0084F88C318FE6FEF7D7FBD4F89C319842B2
:101A4C00FFF489AE94F891310020033B012B00F296
:101A5C009C8000F031FA00264FF00609194F97F8D8
:101A6C0001359E4232DBFFF73FFB94F89131032B9B
:101A7C0067D194F88E3197F80165022BD4F8983120
:101A8C0018BF06F1FF3619074FEA061655D1FEF7B7
:101A9C00ABFB00F2DC50D4F89831C4F89C01013354
:101AAC00B342C4F898317FF756AE94F88E31012BBF
:101ABC0040F08B800423BBE7CA0D00204C050020AE
:101ACC00E8060020C8080020B403002007EBC61A63
:101ADC005046FEF73FFB034640B394F88F01627902
:101AEC00022808BF94F805E094F8911101BF09FB96
:101AFC000EFE03FB0EFECEF1800E9EFBF0FE18BF19
:101B0C004FF0000EC2F1020003294FEA80000FD102
:101B1C00A0EB0610D4F898110192A279014400921E
:101B2C00D4F894015246704400F094FB013696E7C9
:101B3C00042908BF00EB0610ECE7FEF755FB193043
:101B4C00A9E7042B7FF407AE6FF00F0694F88E31E3
:101B5C00022B97F8013518BF03F1FF335E43D4F81D
:101B6C0098311A070DD1FEF73FFB00F2DC50D4F888
:101B7C009831C4F89C01013BB342C4F8983194DB12
:101B8C00E9E5FEF731FB1930F1E700F095F93B4838
:101B9C00FEF7E0FA102380220593002303920493AE
:101BAC0002936379354A0193A3790093D4F8981181
:101BBC000346D4F8940100F089FBFFF795FA94F8EA
:101BCC008E31022B03D1002803DA062330E77F285D
:101BDC000EDD94F89131012B0DD1D4F89431013BE9
:101BEC00C4F89431FEF700FB1930C4F89C01B2E53F
:101BFC00012B3FF45FAF062384F88C31FEF7F4FA27
:101C0C0000F57A70F1E72B70052384F88C31FEF720
:101C1C00EBFAFA30E9E7002000F04EF92B78DB07FD
:101C2C0015D51648FEF796FA10238022059300234B
:101C3C000392049302936379104A0193A37900935E
:101C4C00D4F898110346D4F8940100F03FFBFFF749
:101C5C004BFAFEF7C9FA2B78FA300133DBB2062BBC
:101C6C00C4F89C012B70B0D875E5FEF7BDFAD4F81A
:101C7C009C319842FFF46FAD0723D9E6B4030020E2
:101C8C00014800F0C5BB00BF0800002010B5FEF7EE
:101C9C00F7FFBDE81040044B044A196804484FF4A0
:101CAC008073FEF753BB00BF040200200C080140F8
:101CBC0084080020704700000E4B82B09A6942F0F5
:101CCC0001029A619A6902F001020092009ADA69A3
:101CDC0042F08052DA61DB69074A03F080530193CA
:101CEC00019B536823F0E06343F00073536002B030
:101CFC00704700BF001002400000014037B5036878
:101D0C001E4A0546934222D11D4B1E4C9A69204611
:101D1C0042F400629A619B691B4A03F400630093CE
:101D2C00009B102384E80C0000238022A360236115
:101D3C006361A3614FF40053E260E361FEF7D6FAEE
:101D4C0008B1FFF7B7FF2C62656203B030BDB3F189
:101D5C00804FFAD103F50433DA69072142F001020E
:101D6C00DA61DB69002203F0010301931C20019B63
:101D7C00FEF764FA1C20FEF795FAE6E7002C01400A
:101D8C0000100240840800205800024010B50446A0
:101D9C0086B01022002102A800F08BFB22681B4B9E
:101DAC009A4231D103F558439A6902A942F4804210
:101DBC009A619A69164802F480420092009A9A69D4
:101DCC00002442F004029A619B6903F0040301931E
:101DDC00019B4FF400730293022303930323059397
:101DEC00FEF786FB4FF480630293012302A9084897
:101DFC0004930394FEF77CFB252022460821FEF772
:101E0C001DFA2520FEF74EFA06B010BD0038014031
:101E1C00000801407047FEE7FEE7FEE7FEE770476B
:101E2C0070477047FEF7D4B90148FEF7CDBA00BF32
:101E3C00840800200148FEF73CBF00BFCC0F0020F7
:101E4C000F4B1A6842F001021A6059680D4A0A4099
:101E5C005A601A6822F0847222F480321A601A686E
:101E6C0022F480221A605A6822F4FE025A604FF45F
:101E7C001F029A604FF00062034B9A60704700BFDC
:101E8C00001002400000FFF800ED00E0034B1A7850
:101E9C0012B100221A7070470122FBE71A030020CE
:101EAC00034B1B7800EB0310024B03EB0020704735
:101EBC001A0300200C100020F0B50E4B00241B78E8
:101ECC0040EAC000B3FA83F3C0B25B090A4D1B03AE
:101EDC0060F07F060022E118294488548F180232E2
:101EEC00B2F5807F7E70F8D104F58074B4F5805F14
:101EFC00F0D1F0BD1A0300200C10002038B50024DE
:101F0C00054D20462C70FFF7D7FF012320462B7080
:101F1C00FFF7D2FF2C7038BD1A0300200C4B7F2822
:101F2C001B78B3FA83F34FEA53130FD80F290DD84C
:101F3C0001EB0311074B02F0030203EB012303F83F
:101F4C00102003EB400162F07F024A70704700BF23
:101F5C001A0300200C1000202DE9F04F8FB00393D2
:101F6C0000230291AC4902EB82029DF860400A44C6
:101F7C00D15C0CADE9540133052BF9D182464FF0FD
:101F8C00000900900027DDF808800CAB13F809302D
:101F9C003B41DA073BD40137082FA044F5D109F1B6
:101FAC000109B9F1050FA244ECD1012C0FD9002382
:101FBC000193019B23F00205012D2AD0019B0133D3
:101FCC000193009B23440093019B052BF1D10FB08F
:101FDC00BDE8F08F199BB3420DD81A9BB3420AD3BC
:101FEC001B9BAB4207D81C9BAB4204D3039A2946DC
:101FFC003046FFF793FF0135A5EB08039C42E9D867
:10200C000136A6EB0A03A342C5D24546E2E7564683
:10201C00F7E7029A009B06929B1A0593019B079285
:10202C00089204920CAA13440A936B1E0993019B09
:10203C000CAAD75C099B47FA03F3DB0713D4049B68
:10204C00013523440493059B092DA3EB040305934D
:10205C00089B23440893079B23440793069B234424
:10206C000693E2D1AAE70A9B13F801AC099B4AFA42
:10207C0003F3DE0716D50A9B93F801A0099B4AFAD5
:10208C0003F3D807DBD4AE1E4AFA06F3DA0774D48E
:10209C004AFA05FA1AF0010FD1D02F41FB07CED422
:1020AC00049FBCE0AE1E4AFA06F3D90713D44AFAD1
:1020BC0005FA1AF0010FDED047FA05F616F0010604
:1020CC00D9D1A642D7DA009BA3EB060A079BD046D0
:1020DC0006EB030B49E047FA06F616F00106E6D1CB
:1020EC00A642E4DA009BA3EB060B069BD8469B1B8F
:1020FC001AE0199A90450FD31A9A90450CD81B9A4E
:10210C004A4509D81C9A4A4506D3039A4946404683
:10211C000B93FFF703FF0B9B09F10109A9EB0302DA
:10212C00A242E6D308F10108A8EB0B02A24201D2AD
:10213C009946DEE70136D3E7199B43450DD81A9B28
:10214C0043450AD31B9B4B4507D81C9B4B4504D3DB
:10215C00039A49464046FFF7E1FE09F10109A9EB54
:10216C000B03A342E8D308F10108A8EB0A03A3422E
:10217C0001D2D946E0E70136A3E747FA06F616F096
:10218C00010685D1A64283DA009B06EB030B089B64
:10219C00D8469B1B1AE0199A90450FD31A9A904572
:1021AC000CD81B9A4A4509D81C9A4A4506D3039A5F
:1021BC00494640460993FFF7B1FE099B09F1010915
:1021CC00A9EB0302A242E6D308F10108A8EB0B022B
:1021DC00A24201D29946DEE70136D3E7199B9E4213
:1021EC000DD31A9B9E420AD81B9B984507D31C9B68
:1021FC00984504D8039A41463046FFF78FFE08F104
:10220C000108A8EB07039C42E8D80136A6EB0903AA
:10221C00A34203D2B846E1E7F92600080137049B34
:10222C00FB1A9C427FF70BAF059B03EB07094E464D
:10223C00ECE700BF30B50F2487B0049400247F2551
:10224C00039401949DF8284002950094FFF784FEB6
:10225C0007B030BD2DE9F04F002687B08B469DF8B6
:10226C004010824605910621012435469DF8448094
:10227C00571E01FB08F103914FEAC801049103F1C9
:10228C0001094C4504F1FF3002D107B0BDE8F08FD5
:10229C0017F8012F0D2A02D125460134F1E70A2A3D
:1022AC0006D117F8013C01360D2B08BF2546F4E783
:1022BC00A0EB050E04990398CDF80080059B01FB5B
:1022CC0006B100FB0EA0FFF7B5FFE6E72DE9F04FD6
:1022DC008BB008919DF85010834609919DF854A03D
:1022EC001C46002B3DD04FF0000906270125C8469F
:1022FC0007FB0AF74FEACA030693631C561E0793A3
:10230C00079B681E9D4204D107FB04B00BB0BDE8CF
:10231C00F08F16F8012F0D2A02D1A8460135EFE7F0
:10232C000A2A07D116F8013C09F101090D2B08BF47
:10233C00A846F3E70699199B8E460493189B0899B7
:10234C000393179BA0EB08000293169BCDF800A0FB
:10235C0001930EFB0911099B07FB00B0FFF7FCFD75
:10236C00DCE71846D2E70000002103E00B4B5B587A
:10237C00435004310A480B4B42189A42F6D30A4A8E
:10238C0002E0002342F8043B084B9A42F9D3FFF7D2
:10239C0057FD00F05FF8FFF771F870478C2A0008C2
:1023AC0000000020E8010020E80100200C30002093
:1023BC00FEE7B0F88030B0F88220013392B203F01F
:1023CC007F0393421FBFB0F8802092B28154A0F8D3
:1023DC00803070470346B0F88010B0F8822089B284
:1023EC0092B291421FBFB0F8822092B2805CB3F8D7
:1023FC0082200FBFFF20013202F07F02A3F882205F
:10240C00704783681A68D36843F02003D360704721
:10241C0008B583681A68136813F0200306D0516856
:10242C000068C9B2FFF7C5FF012008BD184608BDFA
:10243C000068FFF7CFBF0368B3F88000B3F88230B1
:10244C0080B29BB2C01A18BF012070470A2200212B
:10245C0000F0DCB870B500250C4E0D4CA41BA4107C
:10246C00A54209D100F00AF900250A4E0A4CA41B1A
:10247C00A410A54205D170BD56F8253098470135FA
:10248C00EEE756F8253098470135F2E7842A000824
:10249C00842A0008842A0008882A000810B5431EE4
:1024AC000A44914200D110BD11F8014B03F8014FC1
:1024BC00F7E703460244934200D1704703F8011B2F
:1024CC00F9E7024610B513461C780132002CFAD1FC
:1024DC00013B11F8012B03F8012F002AF9D110BD93
:1024EC00C9B2034610F8012B1AB19142F9D1184622
:1024FC00704700290CBF184600207047034611F89E
:10250C00012B03F8012B002AF9D170472DE9F84F64
:10251C008046894692461F468B465D460A9815F8BA
:10252C00014B00F089F82044467816F008060BD1D0
:10253C002D2C0BD101262C780BF1020567B1102F35
:10254C0014D1302C0AD011E0AB46E6E72B2C04BF9B
:10255C002C780BF10205F1E7302C27D12B7803F006
:10256C00DF03582B4BD110276C780235002E0CBF93
:10257C006FF000414FF000410022B1FBF7FE104616
:10258C0007FB1E1CA4F13003092B11D81C46A742D3
:10259C001DDD531C07D0864516D301D1A44513DB92
:1025AC00012200FB074015F8014BEBE70A27DDE79A
:1025BC00A4F14103192B01D8373CE8E7A4F16103DE
:1025CC00192B04D8573CE2E74FF0FF32EBE7531CD2
:1025DC0008D122230846C8F80030BAF1000F07D101
:1025EC00BDE8F88F06B14042BAF1000F0CD022B111
:1025FC00013DCAF80050BDE8F88F4D46F9E730248C
:10260C00002FB3D10827B1E7BDE8F88F084B37B5D9
:10261C001C68084D236A002B08BF2B4600931346F9
:10262C000A4601462046FFF771FF03B030BD00BFDC
:10263C00180000207C000020D0F8EC00704782B01D
:10264C0001B901A942B14BB113780B601278101C7F
:10265C0018BF012002B070471046FBE76FF0010075
:10266C00F8E749B1FF2A8BBF8A230A700360012067
:10267C0088BF4FF0FF30704708467047F8B500BF71
:10268C00F8BC08BC9E467047F8B500BFF8BC08BC47
:04269C009E4670479F
:1026A00002030405060708090A0B0C0D0E0F101093
:1026B00052455350415449005054204B45524554C3
:1026C000412041504920494E444F4E4553494120F5
:1026D000285045525345524F2900245254455854CE
:1026E00000000000000000000001020304060708CB
:1026F00009000000000102030400000000003E5B2E
:102700004F5B3E3E6B4F6B3E1C3E7C3E1C183C7E3E
:102710003C181C577D571C1C5E7F5E1C00183C1823
:1027200000FFE7C3E7FF0018241800FFE7DBE7FF1F
:1027300030483A060E2629792926407F05050740AC
:102740007F05253F5A3CE73C5A7F3E1C1C08081C6D
:102750001C3E7F14227F22145F5F005F5F06097FAB
:10276000017F006689956A606060606094A2FFA244
:102770009408047E040810207E201008082A1C08F3
:10278000081C2A08081E101010100C1E0C1E0C30FD
:10279000383E3830060E3E0E0600000000000000F5
:1027A0005F00000007000700147F147F14242A7FB5
:1027B0002A12231308646236495620500008070382
:1027C00000001C2241000041221C002A1C7F1C2A00
:1027D00008083E0808008070300008080808080053
:1027E0000060600020100804023E5149453E00424E
:1027F0007F400072494949462141494D331814121E
:102800007F1027454545393C4A4949314121110945
:10281000073649494936464949291E000014000037
:102820000040340000000814224114141414140051
:102830004122140802015909063E415D594E7C129D
:1028400011127C7F494949363E414141227F414135
:10285000413E7F494949417F090909013E414151B2
:10286000737F0808087F00417F41002040413F01FD
:102870007F081422417F404040407F021C027F7F3E
:102880000408107F3E4141413E7F090909063E414F
:1028900051215E7F09192946264949493203017FA2
:1028A00001033F4040403F1F2040201F3F40384031
:1028B0003F631408146303047804036159494D43CA
:1028C000007F4141410204081020004141417F0442
:1028D0000201020440404040400003070800205429
:1028E0005478407F28444438384444442838444489
:1028F000287F385454541800087E090218A4A49C58
:10290000787F0804047800447D40002040403D006A
:102910007F1028440000417F40007C047804787CCC
:10292000080404783844444438FC18242418182433
:102930002418FC7C08040408485454542404043F1C
:1029400044243C4040207C1C2040201C3C40304023
:102950003C44281028444C9090907C4464544C444F
:1029600000083641000000770000004136080008EA
:10297000040810083C2623263C4300504F53495876
:10298000002E000020202020202020202028282881
:102990002828202020202020202020202020202027
:1029A000202020208810101010101010101010106F
:1029B000101010100404040404040404040410108F
:1029C000101010101041414141414101010101012C
:1029D00001010101010101010101010101010110D8
:1029E0001010101010424242424242020202020201
:1029F00002020202020202020202020202020210A9
:102A00001010102000000000000000000000000076
:102A100000000000000000000000000000000000B6
:102A200000000000000000000000000000000000A6
:102A30000000000000000000000000000000000096
:102A40000000000000000000000000000000000086
:102A50000000000000000000000000000000000076
:102A60000000000000000000000000000000000066
:102A70000000000000000000000000000000000056
:042A80000000000052
:042A84003101000814
:042A88000D01000834
:102A8C00010000001000000010020020960200203F
:102A9C002C0300200024F4001C0000200000000087
:102AAC00000000000000000000000000000000001A
:102ABC00000000000000000000000000000000000A
:102ACC0000000000000000000000000000000000FA
:102ADC0000000000000000000000000000000000EA
:102AEC0000000000000000000000000000000000DA
:102AFC000000000000000000000000004300000087
:102B0C0000000000000000000000000000000000B9
:102B1C000000000000000000000000004300000066
:102B2C000000000000000000000000000000000099
:102B3C000000000000000000000000004300000046
:102B4C000000000000000000000000000000000079
:102B5C000000000000000000000000004300000026
:102B6C000000000000000000000000000000000059
:102B7C000000000000000000000000004300000006
:102B8C000000000000000000000000000000000039
:102B9C0000000000000000000000000043000000E6
:102BAC000000000000000000000000000000000019
:102BBC0000000000000000000000000043000000C6
:102BCC0000000000000000000000000000000000F9
:102BDC000000000000000000000000006F2600084C
:102BEC004B260008000000008329000881290008FA
:102BFC00D9260008D9260008D9260008D9260008AD
:102C0C00D9260008D9260008D9260008D92600089C
:102C1C00D9260008FFFFFFFFFFFFFFFFFFFFFFFFAD
:102C2C00FFFF000001004153434949000000000030
:102C3C000000000000000000000000000000000088
:102C4C00000000000000415343494900000000000F
:102C5C000000000000000000000000000000000068
:082C6C00000000000000000060
:040000050800237557
:00000001FF
