:020000040800F2
:1000000000500020B9230008651E0008671E000884
:10001000691E00086B1E00086D1E0008000000002D
:100020000000000000000000000000006F1E00083B
:10003000711E000800000000731E0008751E0008F5
:1000400001240008012400080124000801240008FC
:1000500001240008012400080124000801240008EC
:1000600001240008012400080124000801240008DC
:10007000012400080124000801240008791E00085A
:1000800001240008012400080124000801240008BC
:1000900001240008012400080124000801240008AC
:1000A000012400080124000801240008012400089C
:1000B000851E00080124000801240008012400080E
:1000C000012400080124000801240008012400087C
:1000D00001240008D11C00080124000801240008A4
:1000E0000124000801240008012400080000000089
:1000F0000000000000000000000000000000000000
:0C01000000000000000000005FF808F1A3
:10010C0010B5054C237833B9044B13B10448AFF345
:10011C0000800123237010BDE801002000000000C6
:10012C00CC26000808B5034B1BB103490348AFF3B9
:10013C00008008BD00000000EC010020CC26000867
:10014C0010F8012B11F8013B012A28BF9A42F7D075
:10015C00D01A7047034613F8012B002AFBD1181A4A
:10016C000138704738B50E4B054618784FF47A7342
:10017C00B3FBF0F30B4A1068B0FBF3F000F0A0F8FF
:10018C00044658B90F2D09D8024629464FF0FF30C6
:10019C0000F054F8044B20461D6038BD012038BDDA
:1001AC00000000201400002004000020074A08B5BD
:1001BC001368032043F01003136000F02DF80020A7
:1001CC00FFF7D0FF01F09AFD002008BD002002408F
:1001DC00034A044B11681B780B441360704700BF33
:1001EC001C03002000000020014B1868704700BF62
:1001FC001C03002038B50446FFF7F6FF0546631CC8
:10020C001EBF044B1B78E418FFF7EEFF401B844223
:10021C00FAD838BD00000020074A0002D36800F469
:10022C00E06023F4E0631B041B0C43F0BF6343F456
:10023C0000330343D360704700ED00E0174B30B53B
:10024C00DC68C4F30224C4F10703251D042B28BF6A
:10025C000423062D4FF0010598BF002405FA03F383
:10026C0003F1FF3388BF033C1940A14005FA04F4A5
:10027C00013C2240002842EA01024FEA0212A9BFC7
:10028C0000F16040064BD2B200F56140BBBF00F0FC
:10029C000F00D2B280F800231A5430BD00ED00E0FC
:1002AC0014ED00E0002808DB0123420900F01F00D8
:1002BC0003FA00F0014B43F82200704700E100E024
:1002CC000138B0F1807F0AD2F021064B064A586003
:1002DC0082F823100020072298601A6070470120D2
:1002EC00704700BF10E000E000ED00E010B530B347
:1002FC0014220168134B84680B44B3FBF2F39B008C
:10030C000364114B0A68C363436822F47F5223438E
:10031C00C46822F030022343046923434469234315
:10032C0084692343C469234313430B6001220023D4
:10033C0080F82120836380F82030184610BD0120FE
:10034C0010BD00BFF8FFFDBF00000240F0B590F8F3
:10035C002040012C35D0012490F8215080F8204009
:10036C00A5424FF000064FF0020428D180F821403E
:10037C00046886632668076C26F001062660C66B47
:10038C00BD407560636043680568102BC36A0BBF82
:10039C00A260A160E160E2604BB1236843F00E0300
:1003AC0023602B68002043F001032B60F0BD236811
:1003BC0023F004032360236843F00A03F0E780F87A
:1003CC0020600220F0BD000070B40425C66B026CE6
:1003DC003468036895402542196832D04D0730D5F2
:1003EC001A6896065EBF1A6822F004021A603E4A2A
:1003FC00934219D01432934218D01432934217D02E
:10040C001432934217D01432934217D014329342C1
:10041C000CBF4FF480034FF08063344A5360C36ABF
:10042C00002B5ED070BC18470423F6E74023F4E79A
:10043C004FF48063F1E74FF48043EEE74FF48023F1
:10044C00EBE702259540254235D08D0733D51A6848
:10045C00940606D41A6822F00A021A60012280F867
:10046C002120214A934219D01432934218D01432CD
:10047C00934217D01432934217D01432934217D0B0
:10048C00143293420CBF4FF400134FF00073174A11
:10049C005360002380F82030836AC1E70223F6E71B
:1004AC002023F4E74FF40073F1E74FF40053EEE729
:1004BC004FF40033EBE708259540254211D009078E
:1004CC000FD5196821F00E011960012303FA02F20D
:1004DC007260836380F82130002380F82030036B36
:1004EC009EE770BC704700BF08000240000002404D
:1004FC002DE9F74F00242646664BDFF8A8E1DFF81C
:10050C00A8C10A6832FA06F502D103B0BDE8F08F33
:10051C004FF0010808FA06F802EA080290457FD16C
:10052C004D68122D00F0AA8000F28380022D00F09D
:10053C00A28077D8002D00F08980012D00F09980E1
:10054C004FF00F09FF2A93BF824606F18045083D04
:10055C00D0F800B092BFB500D0F804B0AD0009FAE5
:10056C0005F82BEA080804FA05F588BF00F1040A1F
:10057C0048EA0505CAF80050D1F804A01AF0805FCB
:10058C004ED0454D444FAD6926F0030845F00105AA
:10059C00BD61BD6908F1804805F00105019508F5BC
:1005AC00803806F0030B019D4FEA8B0BD8F80850EE
:1005BC0009FA0BF925EA0909384DA84263D005F56B
:1005CC008065A84261D005F58065A8425FD005F52D
:1005DC008065A8420CBF0325042505FA0BF545EAF6
:1005EC000905C8F808501D681AF4803F14BF15435C
:1005FC0095431D605D681AF4003F14BF1543954385
:10060C005D609D681AF4801F14BF154395439D606F
:10061C00DD681AF4001F14BF2A4325EA0202DA60CF
:10062C0001366EE7032D22D0112D89D1CC6804340C
:10063C0086E71B4FBD4209D012D8DFF870904D45AC
:10064C0004D009F580394D457FF47AAF8C68C4B17C
:10065C00012C0CBFC0F81080C0F8148008246FE780
:10066C007545F3D06545F1D0DFF84490EBE70024F5
:10067C0066E7CC6864E7CC68083461E7CC680C3476
:10068C005EE704245CE70025A7E70125A5E7022522
:10069C00A3E700BF00040140001002400008014025
:1006AC000000211000003110000032100000111069
:1006BC00000022100AB1016170470904FBE738B54C
:1006CC000446D8B14CF6CC4203681A6045F2555238
:1006DC001A6042685A6082689A60FFF785FD054689
:1006EC002368D86818B94AF6AA221A6038BDFFF7F1
:1006FC007BFD401B3028F3D9032038BD012038BDC9
:10070C004AF6AA22036800201A6070472DE9F341CB
:10071C00054608B901203CE00368DB0710D42B68C0
:10072C009F075DD42B68190700F194802B685A073A
:10073C0000F1BE80E869002840F02C81002028E000
:10074C008F4C636803F00C03042B07D0636803F031
:10075C000C03082B09D16368DE0306D523689C03C0
:10076C00DDD56B68002BDAD1D4E76B68B3F5803F2D
:10077C0012D1236843F480332360FFF735FD06461E
:10078C0023689803CBD4FFF72FFD801B6428F7D97F
:10079C00032002B0BDE8F0819BB9236823F48033B9
:1007AC002360236823F480232360FFF71DFD064696
:1007BC0023689903B3D5FFF717FD801B6428F7D97D
:1007CC00E6E7B3F5A02F236803D143F4802323601D
:1007DC00CFE723F480332360236823F48023CBE713
:1007EC00674C636813F00C0F07D0636803F00C03BD
:1007FC00082B10D16368DA030DD423689B0702D54C
:10080C002B69012B86D123686A6923F0F80343EA2C
:10081C00C203236086E72A695A4B6AB101221A6027
:10082C00FFF7E2FC064623689F07ECD4FFF7DCFCDD
:10083C00801B0228F7D9ABE71A60FFF7D5FC0646F8
:10084C00236898077FF56EAFFFF7CEFC801B02285C
:10085C00F6D99DE7AA694A4C4B4BDAB101221A60D2
:10086C00FFF7C2FC0646636A9B070DD54FF4FA529C
:10087C00464B1B68B3FBF2F3019300BF019B5A1E5E
:10088C000192002BF9D151E7FFF7AEFC801B022837
:10089C00E9D97DE71A60FFF7A7FC0646636A9F0754
:1008AC007FF544AFFFF7A0FC801B0228F6D96FE759
:1008BC00334CE369D80024D40127E36943F0805317
:1008CC00E361E36903F080530093009B304E33687F
:1008DC00D90518D5EB68012B26D1236A43F0010307
:1008EC002362FFF781FC41F288368046236A9B071E
:1008FC003FD5002F3FF41EAFE36923F08053E36133
:10090C0018E70027E2E7336843F480733360FFF79E
:10091C006BFC80463368DA05DCD4FFF765FCA0EB92
:10092C0008006428F6D933E7ABB9236A41F288385A
:10093C0023F001032362236A23F004032362FFF7ED
:10094C0053FC0646236A9807D3D5FFF74DFC801B52
:10095C004045F7D91CE7052B236A03D143F0040368
:10096C002362BAE723F001032362236A23F0040312
:10097C00B6E7FFF739FCA0EB0800B042B6D907E7A1
:10098C000010024000004242800442421400002049
:10099C00007000402A4B5A681C4602F00C02082AD0
:1009AC003DD00023274E022833602BD1FFF71CFCCF
:1009BC000746236899011FD42B6AB3F5803F05D1F4
:1009CC006268A96822F400320A436260696A62684C
:1009DC000B4322F474121343636001233360FFF75B
:1009EC0003FC054623689A013FF5A8AEFFF7FCFB14
:1009FC00401B0228F6D9CBE6FFF7F6FBC01B0228FA
:100A0C00D7D9C5E6FFF7F0FB054623689B017FF5B8
:100A1C0095AEFFF7E9FB401B0228F6D9B8E6012892
:100A2C003FF4B7AE58682B6A00F480329A427FF4D8
:100A3C0071AE6B6A00F47010C01A18BF0120A8E6E2
:100A4C00001002406000424230B5194B87B002AC36
:100A5C0003F11005224618685968083303C2AB42EB
:100A6C001446F7D101238DF80430022311498DF877
:100A7C0005304B6803F00C02082A17D1C3F38342EC
:100A8C0006A80244DB0312F8102C0CD54B680A485C
:100A9C00C3F34043504306AA134413F8143CB0FB71
:100AAC00F3F007B030BD05485043FAE70248F8E7C9
:100ABC00E42600080010024000127A0000093D00F4
:100ACC002DE9F0410D46044610B90120BDE8F08136
:100ADC00454A136803F007038B4229D321688E071C
:100AEC0031D4CA0744D4404A136803F007039D422B
:100AFC0067D322683D4D12F0040F6ED1130706D553
:100B0C006B68226923F4605343EAC2036B60FFF7FE
:100B1C009BFF6B68364AC3F30313D35CD840354B49
:100B2C001860354B1868FFF71DFB0020BDE8F081FD
:100B3C00136823F007030B431360136803F00703D8
:100B4C009942C2D1CAE7294B11F0040F1EBF5A6853
:100B5C0042F4E0625A60080742BF5A6842F460529D
:100B6C005A605A68A06822F0F00202435A60B8E753
:100B7C0062681E4E012A33681BD113F4003FA4D0C7
:100B8C00736841F2883823F0030313437360FFF753
:100B9C002BFB07467368626803F00C03B3EB820F00
:100BAC00A1D0FFF721FBC01B4045F3D90320BDE8C2
:100BBC00F081022A02D113F0007FE0E713F0020F5C
:100BCC00DDE7136823F007032B431360136803F06E
:100BDC0007039D427FF479AF8BE76B68E16823F4E0
:100BEC00E0630B436B6089E7002002400010024079
:100BFC00342700081400002004000020044B054A90
:100C0C005B68C3F30223D35C034A1068D840704777
:100C1C00001002404427000814000020044B054A31
:100C2C005B68C3F3C223D35C034A1068D840704797
:100C3C00001002404427000814000020022380F812
:100C4C003D3003689A6802F00702062A1EBF1A6834
:100C5C0042F001021A60012380F83D3000207047F9
:100C6C0003680020DA6842F00102DA609A6802F048
:100C7C000702062A1EBF1A6842F001021A6070476A
:100C8C000368DA6822F00102DA6041F21112196A83
:100C9C00114208D140F24442196A114202BF1A684B
:100CAC0022F001021A6000207047704770477047AD
:100CBC007047036810B51A69044691070ED5DA68B7
:100CCC0092070BD56FF002021A6101229B69027721
:100CDC009B0777D0FFF7EAFF0023237723681A6975
:100CEC00500710D5DA6851070DD56FF004021A6160
:100CFC0002229B69227713F4407F204668D0FFF7CD
:100D0C00D5FF0023237723681A6912070FD5DA68F9
:100D1C0010070CD56FF008021A610422DB692277E8
:100D2C00990720465AD0FFF7C1FF00232377236889
:100D3C001A69D20610D5DA68D0060DD56FF01002FC
:100D4C001A610822DB69227713F4407F20464BD0CE
:100D5C00FFF7ACFF0023237723681A69D10708D566
:100D6C00DA68D20705D56FF0010220461A6100F04F
:100D7C00AFFF23681A69100608D5DA68110605D585
:100D8C006FF0800220461A6100F045F923681A6959
:100D9C00520608D5DA68500605D56FF04002204699
:100DAC001A61FFF785FF23681A69910622D5DA6864
:100DBC0092061FD56FF020022046BDE810401A6144
:100DCC0000F028B9FFF771FF2046FFF770FF83E7AB
:100DDC00FFF76BFF2046FFF76AFF92E7FFF765FF0F
:100DEC002046FFF764FFA0E7FFF75FFF2046FFF701
:100DFC005EFFAFE710BD00001A4A036890420AD0AC
:100E0C00B0F1804F07D0A2F59432904203D002F596
:100E1C008062904215D14A6823F070031343114A43
:100E2C0090420AD0B0F1804F07D0A2F59432904294
:100E3C0003D002F58062904203D1CA6823F4407358
:100E4C0013434A6923F08003134303608B68C36226
:100E5C000B688362034B984204BF0B690363012345
:100E6C0043617047002C014010B50446A0B190F8C6
:100E7C003D3003F0FF021BB980F83C2000F060FF0E
:100E8C000223206884F83D30211DFFF7B5FF0123B4
:100E9C00002084F83D3010BD012010BD10B58468D1
:100EAC000A4324F47F4442EA03232343836010BDA6
:100EBC0090F83C3070B5012B04464FF0020019D06D
:100ECC00012384F83D00206884F83C30836823F4C7
:100EDC007F4323F0770383600B68402B65D015D8D4
:100EEC00102B0CD007D853B10123002084F83D30CF
:100EFC0084F83C0070BD202B01D0302BF4D18268DB
:100F0C0043F0070322F0700213431AE0602B34D035
:100F1C0019D8502BE8D14A68CE68016A056A21F0CD
:100F2C000A0125F00105056283690A4323F0F003E9
:100F3C0043EA061383610262836823F0700343F073
:100F4C0057038360D0E7702B0CD0B3F5005FCBD187
:100F5C00CB684A688968FFF7A1FF2268936843F45D
:100F6C00804308E0CB684A688968FFF797FF2268DE
:100F7C00936843F077039360B6E74D68CE68016AD7
:100F8C0021F0100101628269036A22F4704223F09D
:100F9C00A00343EA051342EA0632826103628368C6
:100FAC0023F0700343F06703CBE74A68CE68016A0D
:100FBC00056A21F00A0125F00105056283690A43DF
:100FCC0023F0F00343EA061383610262836823F083
:100FDC00700343F04703B4E790F83C3030B5012B75
:100FEC004FF0020314D0046880F83D306268A368A7
:100FFC000D68496822F0700223F080030B432A43EA
:10100C006260A360012380F83D30002380F83C30FF
:10101C00184630BD7047704738B505460368C1683F
:10102C001A69192422F440520A431A618268006931
:10103C00D9680243686921F4B05121F00C010243D4
:10104C000A43DA605A69A96922F440720A435A6168
:10105C000D4A934214D1FFF7E1FD60436C686422A2
:10106C00A400B0FBF4F0B0FBF2F402FB14031B0180
:10107C003233B3FBF2F3296803EB04138B6038BDF6
:10108C00FFF7BCFDE9E700BF0038014010B504468E
:10109C0040B390F8393003F0FF021BB980F83820C8
:1010AC0000F096FE2423226884F83930D368204659
:1010BC0023F40053D360FFF7AFFF236800201A69B5
:1010CC0022F490421A615A6922F02A025A61DA68B3
:1010DC0042F40052DA602023E06384F8393084F85B
:1010EC003A3010BD012010BD034B1A78012AFCD0F8
:1010FC0001221A70704700BF940200204FF47F0346
:10110C001A4A70B513614FF4004313611023184948
:10111C00184C0B612068C8604FF4801008614FF0C8
:10112C0000411161226801320F2A226007D9002682
:10113C00114D26602B7813B100F0CAFE2E7020687A
:10114C00C0B200F0CFFE00220C4B18600C4B1B6899
:10115C005A62226822B90B4B197809B11A7070BD0A
:10116C000748BDE87040FFF77BBD00BF0008014099
:10117C00000C01400C02002094020020040200200C
:10118C00CC0F00200902002038B5084C054620463B
:10119C00FEF7E0FFA84206D90A21601901F0C2F956
:1011AC0008B1001B38BD4FF0FF3038BDB403002030
:1011BC002DE9F0410D46144680460C48FEF7CAFF57
:1011CC00A54282BF2B4625461C46A8420BD384421F
:1011DC0028BF04460023054E4046A75D7119A35550
:1011EC0001F0AEF9A755BDE8F08100BFB4030020B3
:1011FC0010B590B02822002106A801F07CF900213E
:10120C00142201A801F077F9092306934FF48033D7
:10121C000122022407930E934FF4E01306A80A92BE
:10122C000C920F930D94FFF771FA0F234FF4806219
:10123C0001930023214601A8029403930492059381
:10124C00FFF73EFC10B010BD2DE9F04FFDB01CAD0A
:10125C00CA4EFEF7ABFFFFF7CBFF1022002128464A
:10126C0001F049F9B369012243F01003B361B3698A
:10127C004FF4005103F010030893089BB369C04866
:10128C0043F02003B361B369002403F020030993F6
:10129C00099BB3694FF0010943F00403B361B369CF
:1012AC00032703F004030A930A9BB3694FF4805A93
:1012BC0043F00803B361B369DFF8108303F008034C
:1012CC000B930B9BFFF7F6F9002248F28301AD4814
:1012DC00FFF7F0F900221F21AB48FFF7EBF94FF4B1
:1012EC0000532946A64885E80802AC60EF60FFF77A
:1012FC00FFF84FF440432946A14885E88800FFF7E2
:10130C00F7F848F2830329469E4885E80802AC604A
:10131C00EF60FFF7EDF841F67C132946994885E814
:10132C008800FFF7E5F81F232946974885E808024F
:10133C00AC60EF60FFF7DCF84FF6E073294692489B
:10134C0085E88800FFF7D4F87369224643EA09035D
:10135C0073617369062103EA090307930F20079B46
:10136C00FEF76CFF0F20FEF79DFF1022214628464A
:10137C0001F0C1F8854E864B304686E818000B23E9
:10138C001494F3601594B46034617461B461FFF724
:10139C006BFD29463046C5F800A0FFF789FD14A95E
:1013AC003046042714941594FFF716FE4FF4164E8E
:1013BC007848794B846080E80840C46004614761D8
:1013CC008461C461FFF762FE744B404688E8880074
:1013DC0040F27123C8F80830FFF771F9102221464A
:1013EC00284601F088F84FF080436D4F149487E83D
:1013FC00180043F63F033846FB60BC603C61BC619F
:10140C001594FFF731FD29463846C5F800A0FFF7C3
:10141C004FFD202314A9384614931594FFF7DCFDD7
:10142C004046FFF76DF900F08BFD204600F05AFDA9
:10143C005C4B32681860D368304643F48073D360D9
:10144C00594A5A4B9A62FFF7F9FB3846FFF708FCEA
:10145C004046FFF755F9204600F050FD54490CA8C2
:10146C0001F06EF8534914A801F06AF821462046A1
:10147C00072314AACDF80490CDF8009000F00CFFCF
:10148C00204605244C4FCDF80490CDF8009007234E
:10149C00474A082100F000FF87F800904046FFF70C
:1014AC002FF9013C6420FEF7A5FE14F0FF04F5D1E2
:1014BC00204600F023FD01233B703B7803F0FF0630
:1014CC00002BFAD14FF0010802273C4C31464FF467
:1014DC00CE7204F54F702670667001F00CF8314630
:1014EC004FF4CE72201D01F006F84FF4CE72314647
:1014FC0004F5D07000F0FFFF84F83E8384F83F833E
:10150C0084F83D73FEF770FE00F50840B8302C49A6
:10151C00C4F8C00404F5507001F012F884F8C764E4
:10152C00284884F8C98484F8C57484F8C67400F01B
:10153C008AFFFEF759FE244E00F5FA60C4F88801C4
:10154C004FF000082148FFF7DBF81E488DF8188093
:10155C008DF8198000F091FF002800F002811948E5
:10156C0000F088FF24288DF8180040F01B814FF400
:10157C0000724146164800F0BEFF2BE000100240FE
:10158C000010014000080140000C01406C030020D9
:10159C00002C01402C03002000380140003000409A
:1015AC00CC0F002004020020091100088408002040
:1015BC00F4260008FC26000894020020AC0300204E
:1015CC000427000808000020080200202003002047
:1015DC00CA0D002006A9C84800F095FFC64FB8F107
:1015EC00000F00F0BE804FF4C0720021284600F0BE
:1015FC0082FF3846FEF7AEFD4FF0000980B21FFAAD
:10160C0089F3984200F2D5802B78002B00F0A9804A
:10161C00BA492846FEF794FD8046002840F0A18088
:10162C0001464FF4CE72B64809F1010900F063FF90
:10163C004F444FF4C0724146284600F05CFF3846D8
:10164C00FEF788FD80B21FFA88F39842B94600F283
:10165C00BA802B78002B00F08480284600F018FF0D
:10166C0001287ED8284600F013FF09F101094FF438
:10167C00C07284F8A0010021284600F03CFF4846C7
:10168C00FEF768FD4B46002280B291B288421F469D
:10169C0000F2A3802B78002B63D010220021284667
:1016AC0000F0D6FF01374FF4C07200218146284666
:1016BC0000F021FF3846FEF74DFD3B46002280B27C
:1016CC0091B28842984600F293802B78002B48D038
:1016DC0010220021284600F0BBFF94F8A0311FFA1D
:1016EC0089F7012B09F0070984F8A29140F08B804F
:1016FC00002384F8A3314FF47A73C7F384175F4344
:10170C00C4F82473FEF770FDD4F824331844C4F8DD
:10171C00240394F8A071F7B998F80130222B20D14A
:10172C0039464FF4C07208F10208284600F0E3FE77
:10173C004046FEF70FFD394680B28BB2984200F25C
:10174C0083802B786BB12846FEF704FD29460246B0
:10175C006C4800F0C5FE94F8A331002B7CD101231A
:10176C0023702378002B00F0848094F8A031002B98
:10177C0040F0B080E379002B75D061494FF4CE7204
:10178C00A1F5CE7000F0ACFEFEF72EFD03236370C6
:10179C00002300F50840B830C4F8880184F88C3177
:1017AC00237066E0A0F12A07D7F1000848EB070880
:1017BC0010E717F809302C2B3FF42AAF05F8093045
:1017CC0009F101091BE717F8013B2C2B3FF445AF3E
:1017DC0005F8083008F1010835E713F8011B2C292E
:1017EC003FF45BAF2A293FF458AFA95401324CE7C0
:1017FC0013F8011B2C293FF46BAF2A293FF468AF77
:10180C00A95401325CE7002B83D183B2C7F3401299
:10181C0084F8A321C3F3C202C7F3C10784F82A23B7
:10182C00C3F30322013700F0070084F82D23C3F320
:10183C008112C3F3013384F8A17184F8290384F86D
:10184C002B2384F82C3364E718F80130222B3FF457
:10185C007AAF6B54013170E74FF4CE722849881877
:10186C0000F03EFE7DE723791BB994F88C31072BF1
:10187C0083D06378012B13D0FEF7B6FCD4F88831F3
:10188C0098420DD320494FF4CE72A1F54E7000F062
:10189C0027FE00230122C4F88831627084F88C3151
:1018AC002379002B7FF44CAE94F88C21062A00F29D
:1018BC00E48001A151F822F019190008311A00082E
:1018CC004D1500088D1A00084B1C0008651C0008FB
:1018DC00B91C0008012BCCD109494FF4CE72A1F5EB
:1018EC00CE7000F0FDFD0223A079637000F006FBC2
:1018FC00FFF7FAFB002353E7CA0D00202D27000841
:10190C004C05002050050020E806002094F890219A
:10191C00C4F89431012A1FBF6379C3F102025B083A
:10192C0003EB8203C4F8983194F89131033B012BFB
:10193C0027D8002740F202520021C54800F0DBFDF9
:10194C00B946DFF80CA34846FFF71EFC00284FEA07
:10195C00C71809F1010027DAFFF716FC0028D0445C
:10196C0002DABC48FEF7F6FB024649464046FFF752
:10197C001FFC002301378AF80175C4F89831C4F8AC
:10198C00943194F88D31012B25D0022B44D04FF497
:10199C007A73C4F89C3194F89131002B40D1A3791F
:1019AC00002B3DD107231BE0FFF7EEFB0AEB080BE6
:1019BC00B0F100080DDAA748FEF7CCFB0246494609
:1019CC0058460137FFF7F4FB0A2F08F10109BAD189
:1019DC00CFE74246F3E7FA22C4F89C21002232708A
:1019EC0084F88C3194F89131012B7FF4A9AD00204F
:1019FC0000F084FA9748FEF7ADFB6379954A0193A2
:101A0C00A3790093D4F898110346D4F8940100F00C
:101A1C0043FCFFF769FB93E58023C4F89431B6E7E8
:101A2C000323DDE7FEF7E0FBD4F89C319842FFF48A
:101A3C0087AD002000F062FA3378D8070ED58548C0
:101A4C00FEF788FB6379834A0193A3790093D4F85A
:101A5C0098110346D4F8940100F01EFCFFF744FBE8
:101A6C00FEF7C2FB3378FA300133DBB2052BC4F836
:101A7C009C0133707FF664AD032384F88C315FE5F1
:101A8C00FEF7B2FBD4F89C319842FFF459AD94F8B0
:101A9C0091310020033B012B00F2938000F02EFAD1
:101AAC0000274FF00609DFF8A88198F801359F420E
:101ABC0028DBFFF719FB94F89131032B5DD194F8D7
:101ACC008E3198F80175022BD4F8983118BF07F1B4
:101ADC00FF3719074FEA07174BD1FEF785FB00F2CA
:101AEC00DC50D4F89831C4F89C010133BB42C4F8E3
:101AFC0098317FF725AD94F88E31012B40F0818021
:101B0C000423BAE708EBC71A5046FEF723FB03463B
:101B1C0040B394F88F016279022808BF94F805E06D
:101B2C0094F8911101BF09FB0EFE03FB0EFECEF1E2
:101B3C00800E9EFBF0FE18BF4FF0000EC2F1020C9F
:101B4C0003294FEA8C0C0FD1ACEB071CD4F898117D
:101B5C00D4F894010192A2796144009270445246E7
:101B6C0000F09AFB0137A0E7042908BF0CEB071C17
:101B7C00ECE7FEF739FB1930B3E7042B7FF4E0AC4C
:101B8C006FF00F0794F88E31022B98F8013518BFBF
:101B9C0003F1FF335F43D4F898311A070DD1FEF7E8
:101BAC0023FB00F2DC50D4F89831C4F89C01013BC3
:101BBC00BB42C4F898319EDBC2E4FEF715FB19302A
:101BCC00F1E700F09BF92348FEF7C4FA10238022BA
:101BDC000593002303920493029363791D4A0193A6
:101BEC00A3790093D4F898110346D4F8940100F02B
:101BFC008FFBFFF779FA94F88E31022B03D1002872
:101C0C0003DA062339E77F280EDD94F89131012B96
:101C1C000DD1D4F89431013BC4F89431FEF7E4FAB9
:101C2C001930C4F89C018BE4012B3FF469AF0623F7
:101C3C0084F88C31FEF7D8FA00F57A70F1E733703E
:101C4C00052384F88C31FEF7CFFAFA30E9E700BFB0
:101C5C00C8080020B4030020002000F04FF93378AE
:101C6C00DB0715D51648FEF775FA1023802205936D
:101C7C0000230392049302936379114A0193A3798D
:101C8C000093D4F898110346D4F8940100F040FB6B
:101C9C00FFF72AFAFEF7A8FA3378FA300133DBB2F1
:101CAC00062BC4F89C013370ABD849E4FEF79CFAC0
:101CBC00D4F89C319842FFF443AC0723DDE600BF17
:101CCC00B4030020014800F0C5BB00BF0800002091
:101CDC0010B5FEF7D5FFBDE81040044B044A196857
:101CEC0004484FF48073FEF731BB00BF04020020A0
:101CFC000C08014084080020704700000E4B82B095
:101D0C009A6942F001029A619A6902F0010200920A
:101D1C00009ADA6942F08052DA61DB69074A03F013
:101D2C0080530193019B536823F0E06343F00073ED
:101D3C00536002B0704700BF001002400000014029
:101D4C0037B503681E4A0546934222D11D4B1E4CE3
:101D5C009A69204642F400629A619B691B4A03F41B
:101D6C0000630093009B102384E80C000023802266
:101D7C00A36023616361A3614FF40053E260E361EC
:101D8C00FEF7B4FA08B1FFF7B7FF2C62656203B037
:101D9C0030BDB3F1804FFAD103F50433DA69072172
:101DAC0042F00102DA61DB69002203F001030193C6
:101DBC001C20019BFEF742FA1C20FEF773FAE6E7A3
:101DCC00002C014000100240840800205800024002
:101DDC0010B5044686B01022002102A800F08BFB3F
:101DEC0022681B4B9A4231D103F558439A6902A9D8
:101DFC0042F480429A619A69164802F48042009239
:101E0C00009A9A69002442F004029A619B6903F0DB
:101E1C0004030193019B4FF4007302930223039379
:101E2C0003230593FEF764FB4FF4806302930123B5
:101E3C0002A9084804930394FEF75AFB2520224676
:101E4C000821FEF7FBF92520FEF72CFA06B010BD91
:101E5C0000380140000801407047FEE7FEE7FEE74E
:101E6C00FEE7704770477047FEF7B2B90148FEF7BE
:101E7C00ABBA00BF840800200148FEF71ABF00BFB0
:101E8C00CC0F00200F4B1A6842F001021A605968FF
:101E9C000D4A0A405A601A6822F0847222F4803289
:101EAC001A601A6822F480221A605A6822F4FE0220
:101EBC005A604FF41F029A604FF00062034B9A6015
:101ECC00704700BF001002400000FFF800ED00E07A
:101EDC00034B1A7812B100221A7070470122FBE7EB
:101EEC001A030020034B1B7800EB0310024B03EB8F
:101EFC00002070471A0300200C100020F0B50E4B88
:101F0C0000241B7840EAC000B3FA83F3C0B25B092B
:101F1C000A4D1B0360F07F060022E1182944885407
:101F2C008F180232B2F5807F7E70F8D104F5807480
:101F3C00B4F5805FF0D1F0BD1A0300200C10002026
:101F4C0038B50024054D20462C70FFF7D7FF012330
:101F5C0020462B70FFF7D2FF2C7038BD1A030020DF
:101F6C000C4B7F281B78B3FA83F34FEA53130FD82B
:101F7C000F290DD801EB0311074B02F0030203EB01
:101F8C00012303F8102003EB400162F07F024A703A
:101F9C00704700BF1A0300200C1000202DE9F04FF1
:101FAC008FB0039300230291AC4902EB82029DF89F
:101FBC0060400A44D15C0CADE9540133052BF9D1D6
:101FCC0082464FF0000900900027DDF808800CAB2A
:101FDC0013F809303B41DA073BD40137082FA044F2
:101FEC00F5D109F10109B9F1050FA244ECD1012C8D
:101FFC000FD900230193019B23F00205012D2AD058
:10200C00019B01330193009B23440093019B052BFF
:10201C00F1D10FB0BDE8F08F199BB3420DD81A9BCC
:10202C00B3420AD31B9BAB4207D81C9BAB4204D3D5
:10203C00039A29463046FFF793FF0135A5EB0803B9
:10204C009C42E9D80136A6EB0A03A342C5D2454609
:10205C00E2E75646F7E7029A009B06929B1A059315
:10206C00019B0792089204920CAA13440A936B1ECC
:10207C000993019B0CAAD75C099B47FA03F3DB0776
:10208C0013D4049B013523440493059B092DA3EB26
:10209C0004030593089B23440893079B234407934D
:1020AC00069B23440693E2D1AAE70A9B13F801ACE2
:1020BC00099B4AFA03F3DE0716D50A9B93F801A095
:1020CC00099B4AFA03F3D807DBD4AE1E4AFA06F38F
:1020DC00DA0774D44AFA05FA1AF0010FD1D02F415D
:1020EC00FB07CED4049FBCE0AE1E4AFA06F3D90718
:1020FC0013D44AFA05FA1AF0010FDED047FA05F6A6
:10210C0016F00106D9D1A642D7DA009BA3EB060A3A
:10211C00079BD04606EB030B49E047FA06F616F090
:10212C000106E6D1A642E4DA009BA3EB060B069B64
:10213C00D8469B1B1AE0199A90450FD31A9A9045D2
:10214C000CD81B9A4A4509D81C9A4A4506D3039ABF
:10215C00494640460B93FFF703FF0B9B09F101091E
:10216C00A9EB0302A242E6D308F10108A8EB0B028B
:10217C00A24201D29946DEE70136D3E7199B4345CB
:10218C000DD81A9B43450AD31B9B4B4507D81C9B68
:10219C004B4504D3039A49464046FFF7E1FE09F14B
:1021AC000109A9EB0B03A342E8D308F10108A8EB42
:1021BC000A03A34201D2D946E0E70136A3E747FA66
:1021CC0006F616F0010685D1A64283DA009B06EBD3
:1021DC00030B089BD8469B1B1AE0199A90450FD30A
:1021EC001A9A90450CD81B9A4A4509D81C9A4A450C
:1021FC0006D3039A494640460993FFF7B1FE099B63
:10220C0009F10109A9EB0302A242E6D308F1010886
:10221C00A8EB0B02A24201D29946DEE70136D3E7C6
:10222C00199B9E420DD31A9B9E420AD81B9B984524
:10223C0007D31C9B984504D8039A41463046FFF7B8
:10224C008FFE08F10108A8EB07039C42E8D8013681
:10225C00A6EB0903A34203D2B846E1E74C270008DA
:10226C000137049BFB1A9C427FF70BAF059B03EBDA
:10227C0007094E46ECE700BF30B50F2487B0049435
:10228C0000247F25039401949DF828400295009426
:10229C00FFF784FE07B030BD2DE9F04F002687B064
:1022AC008B469DF840108246059106210124354647
:1022BC009DF84480571E01FB08F103914FEAC801B9
:1022CC00049103F101094C4504F1FF3002D107B030
:1022DC00BDE8F08F17F8012F0D2A02D125460134E5
:1022EC00F1E70A2A06D117F8013C01360D2B08BF7D
:1022FC002546F4E7A0EB050E04990398CDF8008071
:10230C00059B01FB06B100FB0EA0FFF7B5FFE6E74E
:10231C002DE9F04F8BB008919DF850108346099130
:10232C009DF854A01C46002B3DD04FF00009062709
:10233C000125C84607FB0AF74FEACA030693631C3C
:10234C00561E0793079B681E9D4204D107FB04B0E1
:10235C000BB0BDE8F08F16F8012F0D2A02D1A8465C
:10236C000135EFE70A2A07D116F8013C09F10109FA
:10237C000D2B08BFA846F3E70699199B8E460493CC
:10238C00189B08990393179BA0EB08000293169BCC
:10239C00CDF800A001930EFB0911099B07FB00B0BF
:1023AC00FFF7FCFDDCE71846D2E70000002103E054
:1023BC000B4B5B58435004310A480B4B42189A4262
:1023CC00F6D30A4A02E0002342F8043B084B9A4237
:1023DC00F9D3FFF757FD00F05FF8FEF735FF7047B4
:1023EC00E02A000800000020E8010020E80100209D
:1023FC000C300020FEE7B0F88030B0F882200133BA
:10240C0092B203F07F0393421FBFB0F8802092B2C8
:10241C008154A0F8803070470346B0F88010B0F8B3
:10242C00822089B292B291421FBFB0F8822092B240
:10243C00805CB3F882200FBFFF20013202F07F02D4
:10244C00A3F88220704783681A68D36843F020038E
:10245C00D360704708B583681A68136813F02003BB
:10246C0006D051680068C9B2FFF7C5FF012008BD4E
:10247C00184608BD0068FFF7CFBF0368B3F88000AB
:10248C00B3F8823080B29BB2C01A18BF01207047DB
:10249C000A22002100F0DCB870B500250C4E0D4C62
:1024AC00A41BA410A54209D100F00AF900250A4E7C
:1024BC000A4CA41BA410A54205D170BD56F82530BA
:1024CC0098470135EEE756F8253098470135F2E785
:1024DC00D82A0008D82A0008D82A0008DC2A0008C4
:1024EC0010B5431E0A44914200D110BD11F8014BA6
:1024FC0003F8014FF7E703460244934200D17047BB
:10250C0003F8011BF9E7024610B513461C7801329B
:10251C00002CFAD1013B11F8012B03F8012F002AF2
:10252C00F9D110BDC9B2034610F8012B1AB1914272
:10253C00F9D11846704700290CBF18460020704787
:10254C00034611F8012B03F8012B002AF9D170472F
:10255C002DE9F84F8046894692461F468B465D46CC
:10256C000A9815F8014B00F089F82044467816F0CB
:10257C0008060BD12D2C0BD101262C780BF1020562
:10258C0067B1102F14D1302C0AD011E0AB46E6E71E
:10259C002B2C04BF2C780BF10205F1E7302C27D142
:1025AC002B7803F0DF03582B4BD110276C780235B6
:1025BC00002E0CBF6FF000414FF000410022B1FB28
:1025CC00F7FE104607FB1E1CA4F13003092B11D893
:1025DC001C46A7421DDD531C07D0864516D301D1DE
:1025EC00A44513DB012200FB074015F8014BEBE778
:1025FC000A27DDE7A4F14103192B01D8373CE8E7A2
:10260C00A4F16103192B04D8573CE2E74FF0FF32D9
:10261C00EBE7531C08D122230846C8F80030BAF166
:10262C00000F07D1BDE8F88F06B14042BAF1000F98
:10263C000CD022B1013DCAF80050BDE8F88F4D46D0
:10264C00F9E73024002FB3D10827B1E7BDE8F88FA4
:10265C00084B37B51C68084D236A002B08BF2B4666
:10266C00009313460A4601462046FFF771FF03B05C
:10267C0030BD00BF180000207C000020D0F8EC001A
:10268C00704782B001B901A942B14BB113780B600C
:10269C001278101C18BF012002B070471046FBE7DF
:1026AC006FF00100F8E749B1FF2A8BBF8A230A704B
:1026BC000360012088BF4FF0FF3070470846704719
:1026CC00F8B500BFF8BC08BC9E467047F8B500BF13
:0826DC00F8BC08BC9E467047E3
:1026E40002030405060708090A0B0C0D0E0F10104F
:1026F40076312E322E3162005245535041544900F6
:10270400505420494E445553545249204B45524548
:1027140054412041504920285045525345524F2995
:102724002E204D414449554E0024525445585400DE
:10273400000000000000000001020304060708096D
:10274400000000000102030400000000003E5B4F93
:102754005B3E3E6B4F6B3E1C3E7C3E1C183C7E3CFD
:10276400181C577D571C1C5E7F5E1C00183C18000B
:10277400FFE7C3E7FF0018241800FFE7DBE7FF309B
:10278400483A060E2629792926407F050507407F09
:1027940005253F5A3CE73C5A7F3E1C1C08081C1C7C
:1027A4003E7F14227F22145F5F005F5F06097F0172
:1027B4007F006689956A606060606094A2FFA2945D
:1027C40008047E040810207E201008082A1C08082B
:1027D4001C2A08081E101010100C1E0C1E0C303879
:1027E4003E3830060E3E0E06000000000000005F7A
:1027F40000000007000700147F147F14242A7F2A96
:102804001223130864623649562050000807030057
:10281400001C2241000041221C002A1C7F1C2A08A3
:10282400083E080800807030000808080808000006
:1028340060600020100804023E5149453E00427F7A
:10284400400072494949462141494D331814127FC9
:102854001027454545393C4A494931412111090769
:102864003649494936464949291E000014000000EA
:1028740040340000000814224114141414140041BC
:1028840022140802015909063E415D594E7C121179
:10289400127C7F494949363E414141227F414141B1
:1028A4003E7F494949417F090909013E414151732C
:1028B4007F0808087F00417F41002040413F017F9D
:1028C400081422417F404040407F021C027F7F0465
:1028D40008107F3E4141413E7F090909063E4151AE
:1028E400215E7F09192946264949493203017F019E
:1028F400033F4040403F1F2040201F3F4038403F9F
:10290400631408146303047804036159494D4300B4
:102914007F4141410204081020004141417F0402EB
:102924000102044040404040000307080020545482
:1029340078407F2844443838444444283844442860
:102944007F385454541800087E090218A4A49C78B3
:102954007F0804047800447D40002040403D007F0F
:102964001028440000417F40007C047804787C08EF
:102974000404783844444438FC18242418182424C3
:1029840018FC7C08040408485454542404043F44A8
:10299400243C4040207C1C2040201C3C4030403CD7
:1029A40044281028444C9090907C4464544C440037
:1029B4000836410000007700000041360800080492
:1029C4000810083C2623263C4300504F5349580026
:1029D4002E00002020202020202020202828282805
:1029E40028202020202020202020202020202020DB
:1029F400202020881010101010101010101010102B
:102A0400101010040404040404040404041010103A
:102A140010101010414141414141010101010101E6
:102A24000101010101010101010101010101101074
:102A340010101010424242424242020202020202BA
:102A44000202020202020202020202020202101046
:102A54001010200000000000000000000000000032
:102A64000000000000000000000000000000000062
:102A74000000000000000000000000000000000052
:102A84000000000000000000000000000000000042
:102A94000000000000000000000000000000000032
:102AA4000000000000000000000000000000000022
:102AB4000000000000000000000000000000000012
:102AC4000000000000000000000000000000000002
:042AD40000000000FE
:042AD80031010008C0
:042ADC000D010008E0
:102AE00001000000100000001002002096020020EB
:102AF0002C0300200024F4001C0000200000000033
:102B000000000000000000000000000000000000C5
:102B100000000000000000000000000000000000B5
:102B200000000000000000000000000000000000A5
:102B30000000000000000000000000000000000095
:102B40000000000000000000000000000000000085
:102B50000000000000000000000000004300000032
:102B60000000000000000000000000000000000065
:102B70000000000000000000000000004300000012
:102B80000000000000000000000000000000000045
:102B900000000000000000000000000043000000F2
:102BA0000000000000000000000000000000000025
:102BB00000000000000000000000000043000000D2
:102BC0000000000000000000000000000000000005
:102BD00000000000000000000000000043000000B2
:102BE00000000000000000000000000000000000E5
:102BF0000000000000000000000000004300000092
:102C000000000000000000000000000000000000C4
:102C10000000000000000000000000004300000071
:102C200000000000000000000000000000000000A4
:102C3000000000000000000000000000B3260008B3
:102C40008F26000800000000D6290008D4290008BB
:102C5000D5290008D5290008D5290008D52900085C
:102C6000D5290008D5290008D5290008D52900084C
:102C7000D5290008FFFFFFFFFFFFFFFFFFFFFFFF5A
:102C8000FFFF0000010041534349490000000000DC
:102C90000000000000000000000000000000000034
:102CA00000000000000041534349490000000000BB
:102CB0000000000000000000000000000000000014
:082CC00000000000000000000C
:04000005080023B913
:00000001FF
