:020000040800F2
:100000000050002029270008AD1F0008AF1F00087E
:10001000B11F0008B31F0008B51F00080000000052
:10002000000000000000000000000000B71F0008F2
:10003000B91F000800000000BB1F0008BD1F00081A
:100040007127000871270008712700087127000830
:100050007127000871270008712700087127000820
:100060007127000871270008712700087127000810
:10007000712700087127000871270008C11F0008B8
:1000800071270008712700087127000871270008F0
:1000900071270008712700087127000871270008E0
:1000A00071270008712700087127000871270008D0
:1000B000CD1F00087127000871270008712700086C
:1000C00071270008712700087127000871270008B0
:1000D00071270008351E00087127000871270008E5
:1000E0007127000871270008712700080000000030
:1000F0000000000000000000000000000000000000
:0C01000000000000000000005FF808F1A3
:10010C0010B5054C237833B9044B13B10448AFF345
:10011C0000800123237010BDE801002000000000C6
:10012C003C2A000808B5034B1BB103490348AFF345
:10013C00008008BD00000000EC0100203C2A0008F3
:10014C0010F8012B11F8013B012A28BF9A42F7D075
:10015C00D01A7047034613F8012B002AFBD1181A4A
:10016C0001387047D0400B1CD1409C46203AD340FC
:10017C0018435242634693401843704738B50E4BB0
:10018C00054618784FF47A73B3FBF0F30B4A1068FA
:10019C00B0FBF3F000F0A0F8044658B90F2D09D8C5
:1001AC00024629464FF0FF3000F054F8044B20462D
:1001BC001D6038BD012038BD000000201400002057
:1001CC0004000020074A08B51368032043F010030D
:1001DC00136000F02DF80020FFF7D0FF01F032FE85
:1001EC00002008BD00200240034A044B11681B7814
:1001FC000B441360704700BF240300200000002054
:10020C00014B1868704700BF2403002038B5044622
:10021C00FFF7F6FF0546631C1EBF044B1B78E41862
:10022C00FFF7EEFF401B8442FAD838BD00000020D7
:10023C00074A0002D36800F4E06023F4E0631B0477
:10024C001B0C43F0BF6343F400330343D36070478C
:10025C0000ED00E0174B30B5DC68C4F30224C4F1A8
:10026C000703251D042B28BF0423062D4FF0010581
:10027C0098BF002405FA03F303F1FF3388BF033C56
:10028C001940A14005FA04F4013C2240002842EA3E
:10029C0001024FEA0212A9BF00F16040064BD2B234
:1002AC0000F56140BBBF00F00F00D2B280F8002314
:1002BC001A5430BD00ED00E014ED00E0002808DB1E
:1002CC000123420900F01F0003FA00F0014B43F830
:1002DC002200704700E100E00138B0F1807F0AD2C3
:1002EC00F021064B064A586082F8231000200722A2
:1002FC0098601A6070470120704700BF10E000E062
:10030C0000ED00E010B530B314220168134B846883
:10031C000B44B3FBF2F39B000364114B0A68C363F9
:10032C00436822F47F522343C46822F030022343F3
:10033C00046923434469234384692343C4692343E5
:10034C0013430B600122002380F82120836380F883
:10035C002030184610BD012010BD00BFF8FFFDBFB6
:10036C0000000240F0B590F82040012C35D001245B
:10037C0090F8215080F82040A5424FF000064FF035
:10038C00020428D180F82140046886632668076C33
:10039C0026F001062660C66BBD407560636043683D
:1003AC000568102BC36A0BBFA260A160E160E2601C
:1003BC004BB1236843F00E0323602B68002043F0FD
:1003CC0001032B60F0BD236823F004032360236832
:1003DC0043F00A03F0E780F820600220F0BD000033
:1003EC0070B40425C66B026C3468036895402542D2
:1003FC00196832D04D0730D51A6896065EBF1A6858
:10040C0022F004021A603E4A934219D014329342ED
:10041C0018D01432934217D01432934217D014329E
:10042C00934217D0143293420CBF4FF480034FF019
:10043C008063344A5360C36A002B5ED070BC18478B
:10044C000423F6E74023F4E74FF48063F1E74FF41D
:10045C008043EEE74FF48023EBE7022595402542DD
:10046C0035D08D0733D51A68940606D41A6822F055
:10047C000A021A60012280F82120214A934219D0E5
:10048C001432934218D01432934217D01432934240
:10049C0017D01432934217D0143293420CBF4FF43E
:1004AC0000134FF00073174A5360002380F820307C
:1004BC00836AC1E70223F6E72023F4E74FF40073C5
:1004CC00F1E74FF40053EEE74FF40033EBE7082568
:1004DC009540254211D009070FD5196821F00E015E
:1004EC001960012303FA02F27260836380F82130F1
:1004FC00002380F82030036B9EE770BC704700BF70
:10050C000800024000000240114AD36813F01003A7
:10051C0005D01049CB6943F00203CB611023D2689C
:10052C00500706D50B4943F00403CA6942F0010297
:10053C00CA61074AD169C90708D50648C16941F0A3
:10054C000401C161D16921F00101D161D36070470F
:10055C000020024028030020064B186910F0800090
:10056C0007D0054A5A6002F188325A601869C0F304
:10057C00C01070470020024023016745034A002049
:10058C00136943F080031361704700BF00200240E1
:10059C00F8B50646FFF734FE114C07462546E368CE
:1005AC00D80712D4E368990644BF2023E360EB68B4
:1005BC00DA0606D4EB69DB0703D4E86810F0040014
:1005CC0002D0FFF7A1FF0120F8BD731CE7D00EB9D4
:1005DC000320F8BDFFF714FEC01B8642DFD2F7E7FD
:1005EC00002002402DE9F84F1F4C9946237E05460A
:1005FC00012B0F46904633D001234CF2503023761A
:10060C00FFF7C6FF40BB012D03D0022D0CBF022506
:10061C0004250026B246DFF854B032014046494664
:10062C00FFF7A0FDC4F81CA0DBF8103080B243F03B
:10063C000103CBF8103027F816004CF25030FFF7BE
:10064C00A7FFDBF8103023F00103CBF8103018B9FA
:10065C000136F3B29D42E0D800232376BDE8F88F33
:10066C000220BDE8F88F00BF2803002000200240C4
:10067C000022064BDA61064B1A6942F004021A6139
:10068C001A6942F040021A61704700BF280300202B
:10069C00002002400022064BDA61064B1A6942F038
:1006AC0002021A6158611A6942F040021A617047DD
:1006BC0028030020002002402DE9F041234D07467D
:1006CC002B7E8846012B3DD0012403682C76022B0F
:1006DC004CF2503013D1FFF75BFF20B10120002307
:1006EC002B76BDE8F081FFF7C3FF4CF25030FFF7DB
:1006FC004FFF174A136923F004031361EFE7FFF769
:10070C0047FF0028EAD14FF0FF33C8F800302046ED
:10071C00BE680F4CFA68BB6803EB82239E42DED2A4
:10072C003046FFF7B7FF4CF25030FFF731FF23692B
:10073C0023F00203236110B1C8F80060CFE706F57F
:10074C008066E7E70220BDE8F08100BF28030020A7
:10075C00002002402DE9F74F00242646664BDFF8B7
:10076C00A8E1DFF8A8C10A6832FA06F502D103B095
:10077C00BDE8F08F4FF0010808FA06F802EA08020B
:10078C0090457FD14D68122D00F0AA8000F2838035
:10079C00022D00F0A28077D8002D00F08980012D69
:1007AC0000F099804FF00F09FF2A93BF824606F1A3
:1007BC008045083DD0F800B092BFB500D0F804B029
:1007CC00AD0009FA05F82BEA080804FA05F588BF0C
:1007DC0000F1040A48EA0505CAF80050D1F804A053
:1007EC001AF0805F4ED0454D444FAD6926F003089A
:1007FC0045F00105BD61BD6908F1804805F00105B2
:10080C00019508F5803806F0030B019D4FEA8B0B20
:10081C00D8F8085009FA0BF925EA0909384DA8420D
:10082C0063D005F58065A84261D005F58065A842C6
:10083C005FD005F58065A8420CBF0325042505FA99
:10084C000BF545EA0905C8F808501D681AF4803FF5
:10085C0014BF154395431D605D681AF4003F14BF27
:10086C00154395435D609D681AF4801F14BF1543B2
:10087C0095439D60DD681AF4001F14BF2A4325EAD6
:10088C000202DA6001366EE7032D22D0112D89D1D8
:10089C00CC68043486E71B4FBD4209D012D8DFF870
:1008AC0070904D4504D009F580394D457FF47AAFF1
:1008BC008C68C4B1012C0CBFC0F81080C0F8148037
:1008CC0008246FE77545F3D06545F1D0DFF8449007
:1008DC00EBE7002466E7CC6864E7CC68083461E792
:1008EC00CC680C345EE704245CE70025A7E70125FF
:1008FC00A5E70225A3E700BF000401400010024059
:10090C0000080140000021100000311000003210DE
:10091C0000001110000022100AB101617047090497
:10092C00FBE738B50446D8B14CF6CC4203681A60E4
:10093C0045F255521A6042685A6082689A60FFF715
:10094C005FFC05462368D86818B94AF6AA221A60D3
:10095C0038BDFFF755FC401B3028F3D9032038BDB8
:10096C00012038BD4AF6AA22036800201A6070479D
:10097C002DE9F341054608B901203CE00368DB078B
:10098C0010D42B689F075DD42B68190700F1948055
:10099C002B685A0700F1BE80E869002840F02C81D2
:1009AC00002028E08F4C636803F00C03042B07D065
:1009BC00636803F00C03082B09D16368DE0306D5CA
:1009CC0023689C03DDD56B68002BDAD1D4E76B6808
:1009DC00B3F5803F12D1236843F480332360FFF7D3
:1009EC000FFC064623689803CBD4FFF709FC801B49
:1009FC006428F7D9032002B0BDE8F0819BB92368C5
:100A0C0023F480332360236823F480232360FFF7CF
:100A1C00F7FB064623689903B3D5FFF7F1FB801B60
:100A2C006428F7D9E6E7B3F5A02F236803D143F484
:100A3C0080232360CFE723F480332360236823F4DF
:100A4C008023CBE7674C636813F00C0F07D0636807
:100A5C0003F00C03082B10D16368DA030DD4236860
:100A6C009B0702D52B69012B86D123686A6923F079
:100A7C00F80343EAC203236086E72A695A4B6AB13A
:100A8C0001221A60FFF7BCFB064623689F07ECD4D3
:100A9C00FFF7B6FB801B0228F7D9ABE71A60FFF70C
:100AAC00AFFB0646236898077FF56EAFFFF7A8FBF0
:100ABC00801B0228F6D99DE7AA694A4C4B4BDAB148
:100ACC0001221A60FFF79CFB0646636A9B070DD553
:100ADC004FF4FA52464B1B68B3FBF2F3019300BF81
:100AEC00019B5A1E0192002BF9D151E7FFF788FBAD
:100AFC00801B0228E9D97DE71A60FFF781FB0646C7
:100B0C00636A9F077FF544AFFFF77AFB801B0228CF
:100B1C00F6D96FE7334CE369D80024D40127E36995
:100B2C0043F08053E361E36903F080530093009B2F
:100B3C00304E3368D90518D5EB68012B26D1236AC2
:100B4C0043F001032362FFF75BFB41F288368046DA
:100B5C00236A9B073FD5002F3FF41EAFE36923F0B8
:100B6C008053E36118E70027E2E7336843F48073AE
:100B7C003360FFF745FB80463368DA05DCD4FFF7BA
:100B8C003FFBA0EB08006428F6D933E7ABB9236A26
:100B9C0041F2883823F001032362236A23F0040313
:100BAC002362FFF72DFB0646236A9807D3D5FFF780
:100BBC0027FB801B4045F7D91CE7052B236A03D183
:100BCC0043F004032362BAE723F001032362236A90
:100BDC0023F00403B6E7FFF713FBA0EB0800B042C9
:100BEC00B6D907E70010024000004242800442429E
:100BFC0014000020007000402A4B5A681C4602F07A
:100C0C000C02082A3DD00023274E022833602BD13A
:100C1C00FFF7F6FA0746236899011FD42B6AB3F540
:100C2C00803F05D16268A96822F400320A436260F1
:100C3C00696A62680B4322F47412134363600123E4
:100C4C003360FFF7DDFA054623689A013FF5A8AE3D
:100C5C00FFF7D6FA401B0228F6D9CBE6FFF7D0FAFD
:100C6C00C01B0228D7D9C5E6FFF7CAFA0546236888
:100C7C009B017FF595AEFFF7C3FA401B0228F6D90E
:100C8C00B8E601283FF4B7AE58682B6A00F48032FE
:100C9C009A427FF471AE6B6A00F47010C01A18BFE0
:100CAC000120A8E6001002406000424230B5194B0A
:100CBC0087B002AC03F11005224618685968083356
:100CCC0003C2AB421446F7D101238DF80430022342
:100CDC0011498DF805304B6803F00C02082A17D126
:100CEC00C3F3834206A80244DB0312F8102C0CD584
:100CFC004B680A48C3F34043504306AA134413F805
:100D0C00143CB0FBF3F007B030BD05485043FAE794
:100D1C000248F8E7542A00080010024000127A003A
:100D2C0000093D002DE9F0410D46044610B90120A3
:100D3C00BDE8F081454A136803F007038B4229D3C1
:100D4C0021688E0731D4CA0744D4404A136803F093
:100D5C0007039D4267D322683D4D12F0040F6ED1FC
:100D6C00130706D56B68226923F4605343EAC20368
:100D7C006B60FFF79BFF6B68364AC3F30313D35CBE
:100D8C00D840354B1860354B1868FFF7F7F9002041
:100D9C00BDE8F081136823F007030B43136013685D
:100DAC0003F007039942C2D1CAE7294B11F0040F93
:100DBC001EBF5A6842F4E0625A60080742BF5A6884
:100DCC0042F460525A605A68A06822F0F002024362
:100DDC005A60B8E762681E4E012A33681BD113F4BF
:100DEC00003FA4D0736841F2883823F00303134307
:100DFC007360FFF705FA07467368626803F00C032B
:100E0C00B3EB820FA1D0FFF7FBF9C01B4045F3D920
:100E1C000320BDE8F081022A02D113F0007FE0E745
:100E2C0013F0020FDDE7136823F007032B43136065
:100E3C00136803F007039D427FF479AF8BE76B686F
:100E4C00E16823F4E0630B436B6089E70020024008
:100E5C00001002409A2A0008140000200400002010
:100E6C00044B054A5B68C3F30223D35C034A106846
:100E7C00D840704700100240AA2A00081400002035
:100E8C00044B054A5B68C3F3C223D35C034A106866
:100E9C00D840704700100240AA2A00081400002015
:100EAC00022380F83D3003689A6802F00702062A94
:100EBC001EBF1A6842F001021A60012380F83D300F
:100ECC000020704703680020DA6842F00102DA6003
:100EDC009A6802F00702062A1EBF1A6842F0010245
:100EEC001A6070470368DA6822F00102DA6041F296
:100EFC001112196A114208D140F24442196A114286
:100F0C0002BF1A6822F001021A6000207047704775
:100F1C00704770477047036810B51A69044691070B
:100F2C000ED5DA6892070BD56FF002021A61012216
:100F3C009B6902779B0777D0FFF7EAFF00232377A3
:100F4C0023681A69500710D5DA6851070DD56FF070
:100F5C0004021A6102229B69227713F4407F204617
:100F6C0068D0FFF7D5FF0023237723681A6912078F
:100F7C000FD5DA6810070CD56FF008021A6104223D
:100F8C00DB692277990720465AD0FFF7C1FF00236F
:100F9C00237723681A69D20610D5DA68D0060DD5E6
:100FAC006FF010021A610822DB69227713F4407F7C
:100FBC0020464BD0FFF7ACFF0023237723681A6938
:100FCC00D10708D5DA68D20705D56FF001022046A3
:100FDC001A6100F02FFF23681A69100608D5DA6829
:100FEC00110605D56FF0800220461A6100F045F914
:100FFC0023681A69520608D5DA68500605D56FF0D1
:10100C00400220461A61FFF785FF23681A69910692
:10101C0022D5DA6892061FD56FF020022046BDE873
:10102C0010401A6100F028B9FFF771FF2046FFF756
:10103C0070FF83E7FFF76BFF2046FFF76AFF92E72D
:10104C00FFF765FF2046FFF764FFA0E7FFF75FFFA0
:10105C002046FFF75EFFAFE710BD00001A4A036899
:10106C0090420AD0B0F1804F07D0A2F59432904252
:10107C0003D002F58062904215D14A6823F07003C8
:10108C001343114A90420AD0B0F1804F07D0A2F519
:10109C009432904203D002F58062904203D1CA6828
:1010AC0023F4407313434A6923F080031343036012
:1010BC008B68C3620B688362034B984204BF0B6955
:1010CC000363012343617047002C014010B50446B3
:1010DC00A0B190F83D3003F0FF021BB980F83C2022
:1010EC0000F0D2FE0223206884F83D30211DFFF76A
:1010FC00B5FF0123002084F83D3010BD012010BD48
:10110C0010B584680A4324F47F4442EA0323234342
:10111C00836010BD90F83C3070B5012B04464FF045
:10112C00020019D0012384F83D00206884F83C307B
:10113C00836823F47F4323F0770383600B68402B91
:10114C0065D015D8102B0CD007D853B10123002033
:10115C0084F83D3084F83C0070BD202B01D0302B3E
:10116C00F4D1826843F0070322F0700213431AE0B3
:10117C00602B34D019D8502BE8D14A68CE68016A5C
:10118C00056A21F00A0125F00105056283690A430D
:10119C0023F0F00343EA061383610262836823F0B1
:1011AC00700343F057038360D0E7702B0CD0B3F57A
:1011BC00005FCBD1CB684A688968FFF7A1FF226832
:1011CC00936843F4804308E0CB684A688968FFF76A
:1011DC0097FF2268936843F077039360B6E74D68F6
:1011EC00CE68016A21F0100101628269036A22F45F
:1011FC00704223F0A00343EA051342EA06328261EF
:10120C000362836823F0700343F06703CBE74A68FB
:10121C00CE68016A056A21F00A0125F00105056214
:10122C0083690A4323F0F00343EA061383610262E5
:10123C00836823F0700343F04703B4E790F83C3025
:10124C0030B5012B4FF0020314D0046880F83D3008
:10125C006268A3680D68496822F0700223F080036D
:10126C000B432A436260A360012380F83D300023C6
:10127C0080F83C30184630BD7047704738B505468D
:10128C000368C1681A69192422F440520A431A618E
:10129C0082680069D9680243686921F4B05121F071
:1012AC000C0102430A43DA605A69A96922F44072BC
:1012BC000A435A610D4A934214D1FFF7E1FD604392
:1012CC006C686422A400B0FBF4F0B0FBF2F402FBF7
:1012DC0014031B013233B3FBF2F3296803EB041341
:1012EC008B6038BDFFF7BCFDE9E700BF003801405B
:1012FC0010B5044640B390F8393003F0FF021BB927
:10130C0080F8382000F008FE2423226884F8393055
:10131C00D368204623F40053D360FFF7AFFF236854
:10132C0000201A6922F490421A615A6922F02A02AA
:10133C005A61DA6842F40052DA602023E06384F8E0
:10134C00393084F83A3010BD012010BD4FF47F02C3
:10135C00214B70B51A614FF400421A611022012121
:10136C001E4802611E4A1468A140C94301F00F01D6
:10137C00C16080244FF400011C6119611C6119616A
:10138C001C6119614FF4801101614FF0004119612A
:10139C00136814460133032B136007D90026114D33
:1013AC0016602B7813B100F093FE2E702068C0B23B
:1013BC0000F098FE00220C4B18600C4B1B685A6214
:1013CC00226822B90A4B197809B11A7070BD074806
:1013DC00BDE87040FFF776BD00080140000C0140ED
:1013EC001002002098020020080200207C0500203A
:1013FC000D020020034B044A196804484FF4C073D3
:10140C00FEF7B0BF080200200C080140B804002011
:10141C00204B70B500F00F000D010343EDB200201E
:10142C0014461D4300F06EFE01221B4B1A701A78F5
:10143C00002AFCD10122194B1A701A7802F0FF060F
:10144C00002AFAD100F0E8FD2946304600F00FFEE4
:10145C000125013C00232046194610F8012F9A4023
:10146C000833202B41EA0201F7D1A8B2013500F074
:10147C00FEFD112D04F10404ECD100F029FE084B03
:10148C001868C0B200F02EFEBDE87040054B186025
:10149C00FFF7B0BF0072756B980200200D020020A0
:1014AC001002002008020020064B93F850202AB9A5
:1014BC000321054A117000221A707047012AFAD1D3
:1014CC000221F6E748030020040200202DE9F04336
:1014DC00744C0328237887B003BFA77A667A04F18B
:1014EC000B0594F89A701CBF94F8996004F19B0555
:1014FC00002B3ED1032812D194F8E0307BB194F844
:10150C005080B8F1000F0AD167494822A1F1480078
:10151C0001F09EF9654DA77A667A84F8E0800D217A
:10152C00284601F0B7F920B90A21284601F0B2F992
:10153C00D8B1002000F0E6FD2846FEF70BFE102384
:10154C000021059360232A460393049183B20291F0
:10155C0001960097084601F081F80122544B1A704D
:10156C000523237007B0BDE8F083524B187002239B
:10157C00F7E7052B0BD10328F4D194F8E030002BBE
:10158C00F0D094F85030002BECD10023E9E7022B7B
:10159C003ED1FEF735FE63689842E3D3DFF8148141
:1015AC0098F800300133DBB2062B88F8003001D9F3
:1015BC000323D6E7002000F0A5FD98F80030DB07E8
:1015CC001ED54FF000083C4BC6F10209A3F8008071
:1015DC003A4B4FEA89092846A3F80090FEF7BAFD6A
:1015EC00102305936023CDF810800393CDF8088069
:1015FC0083B2019600972A464946404601F02EF8E0
:10160C0001222B4B1A70FEF7FBFDFA306060A9E744
:10161C00012B05D1FEF7F4FD63689842C8D2A1E70F
:10162C00032B34D1FEF7ECFD636898429AD300206B
:10163C0000F068FD2846FEF78DFD204BDFF8788022
:10164C00B3F900101023B8F900E0602205930023D1
:10165C000392049302932A4683B201960097704634
:10166C0000F0FCFF0122124B5F281A7008DDB8F85D
:10167C000030013BA8F80030FEF7C2FD1E30C5E774
:10168C0004232370FEF7BCFD00F57A70BEE7042B33
:10169C007FF468AFFEF7B4FD63689842BFF475AF92
:1016AC0060E700BF4803002098030020530300208C
:1016BC00980200200C0200201E03002020030020B2
:1016CC0010B590B02822002106A801F0CCF800211A
:1016DC00142201A801F0C7F8092306934FF48033B4
:1016EC000122022407930E934FF4E01306A80A92EA
:1016FC000C920F930D94FFF73BF90F234FF480627C
:10170C0001930023214601A80294039304920593AC
:10171C00FFF708FB10B010BD2DE9F04FA3B0C64E7B
:10172C0012ADFEF74FFDFFF7CBFF1022002128462C
:10173C0001F099F8B369012243F01003B361B36966
:10174C004FF4005103F010030593059BB369BB489C
:10175C0043F02003B361B369002403F02003069324
:10176C00069BB3694FF0010A43F00403B361B369FC
:10177C00032703F004030793079BB3694FF0050895
:10178C0043F00803B361B3694FF4805903F00803C5
:10179C000893089BFFF7C0F8002248F2BF01A84845
:1017AC00FFF7BAF800221F21A648FFF7B5F84FF44F
:1017BC0000532946A14812931597CDF84CA01494C8
:1017CC00FEF7C8FF4FF4404329469C4812931397E9
:1017DC00FEF7C0FF48F2BF032946994812931597AC
:1017EC00CDF84CA01494FEF7B5FF4FF4CA5329461C
:1017FC00934812931397FEF7ADFF1F232946914888
:10180C0012931597CDF84CA01494FEF7A3FF4FF646
:10181C00E07329468B4812931397FEF79BFF73696D
:10182C00224643EA0A0373617369062103EA0A0339
:10183C0004930F20049BFEF70DFD0F20824EFEF744
:10184C003DFD10222146284601F00DF87F4B304615
:10185C0086E818000A940B94B460C6F80C803461C6
:10186C007461B461FFF732FC29463046CDF84890DC
:10187C00FFF750FC0AA930460A940B94FFF7DEFCE4
:10188C0010222146284600F0EEFF4FF08043704FA7
:10189C000A9487E818004EF65F233846FB600B94D9
:1018AC00BC603C61BC61FFF711FC29463846CDF8A1
:1018BC004890FFF72FFC20230AA938460A934FF0D3
:1018CC00040B0B94FFF7BAFC4FF416436148624AC1
:1018DC00DFF8A09180E80C008460C4600461C0F85B
:1018EC0014B08461C461FFF703FD5C4B484689E882
:1018FC00080840F27123C9F80830FFF712F848467F
:10190C00FFF730F800F022FC204600F0EBFB544BC4
:10191C0032681860D368304643F48073D360514A00
:10192C00514B9A62FFF7BCFA3846FFF7CBFA4846A0
:10193C00FFF718F8204600F0E5FB4C490AA800F028
:10194C00B7FF0723CDF804A0CDF800A00AAA2146C2
:10195C00204600F045FE464B83F800A00293484613
:10196C00FFF700F808F1FF346420FEF74FFC14F089
:10197C00FF08F4D1404600F0C5FB01230526029A6E
:10198C003C4C13702046FEF7EDFF013E6420FEF741
:10199C003DFC16F0FF06F5D10127374C40223146AD
:1019AC0004F10B00A6726772267200F05CFFFEF762
:1019BC0027FC022300F50840B830E0642F490DF1F4
:1019CC00880A04F19B0084F89A7084F8993084F8A2
:1019DC00986000F06DFF4AF8646D5146304600F097
:1019EC0039FB70B1099B264A23F0FF01914200F0AC
:1019FC00AB8004F19B0294F8991094F89A00FFF7CD
:101A0C0007FD204800F0D7FEDFF87CB0002619480F
:101A1C00FEF7A8FF1B488DF824608DF8256000F0B8
:101A2C00E4FE00284FD0174800F0DCFE24288DF887
:101A3C00240040F0B18029E0001002400010014069
:101A4C0000080140000C014078040020002C0140EB
:101A5C007C05002038040020003801400030004094
:101A6C000802002059130008B8040020642A00085A
:101A7C00980200202C040020480300206C2A000847
:101A8C000072756B08000020040200208022314691
:101A9C00BE4800F0E8FE5146BC4800F0ECFE96B1A2
:101AAC0040220021284600F0DEFEB948FEF752FB2A
:101ABC000023B74A80B299B28842904671D89DF8FB
:101ACC004830002B71D1B34B1B78012B00F0A58152
:101ADC0094F8E060A6B9FEF793FBE36C98420FD341
:101AEC00AD494822A1F1900000F0B2FE0123A94AB1
:101AFC00E66413702670FEF783FB00F57A70606065
:101B0C009BF80030022B40F06F8194F8E0308BB1E1
:101B1C0094F85060012E0DD1A0494822A1F1480043
:101B2C0000F096FEA07A00F0EDFA029B1E700023E6
:101B3C0084F8E030FEF764FBE36C9842FFF466AF88
:101B4C0000238BF8003061E7DBB203F00F0284F85E
:101B5C009A201B092A461021384684F8986084F88C
:101B6C00993000F0A0FA00283FF44BAF40223146E8
:101B7C0004F19B0000F077FE002306F19A02A859AD
:101B8C00224420FA03F10833202B02F8011FF8D16C
:101B9C000436402EF0D134E7A0F12A035E425E41B8
:101BAC0079E712F8011B2C2907D17D492846FEF74D
:101BBC00C7FA28B9012306460FE0E95401337AE746
:101BCC0078492846FEF7BCFAE0B177492846FEF77B
:101BDC00B7FA00287FF477AF03464022002108F1C2
:101BEC0001082846039300F03EFE4046FEF7B2FA89
:101BFC000022039B80B291B2884206D89DF84820FF
:101C0C0042B960E706460346E7E7414611F8017B17
:101C1C002C2F36D12846039300F0F2FD424202F0FD
:101C2C000702039B00F0070758BF5742FFB208F1A9
:101C3C0001098BB340220021284600F014FE4846CF
:101C4C00FEF788FA424680B20DF14701A2EB080379
:101C5C009BB2984219D89DF84830002B3FF433AF13
:101C6C000123284684F8503084F8E03084F8527010
:101C7C0000F0C6FD0646FEF7C3FA3044C4F89400E3
:101C8C0021E7AF5488460132B5E712F8013F2A2B01
:101C9C00E6D001F8013FD9E740220021284600F0A8
:101CAC00E2FD4846FEF756FA002280B291B2884215
:101CBC004B4605D89DF84820002A3FF404AF03E0BA
:101CCC0019F8011B2C2944D12846039300F098FDE8
:101CDC00039B80465A78222A7FF4F5AE03F1020961
:101CEC0000214022284600F0BEFD4846FEF732FA9D
:101CFC004946002380B2A1EB090292B290422BD844
:101D0C009DF84830002B3FF4DEAE052398FBF3F32F
:101D1C0003EB8303A8EB03085FFA88F8002E47D087
:101D2C0000214022214884F8981084F89A7084F895
:101D3C00998000F098FD2846FEF70CFA29460246D9
:101D4C001A4800F085FD194A41463846FFF760FBFA
:101D5C00B9E6A9540132A9E711F8012B222A0BD1BB
:101D6C00002BD2D00DF1880E9E441EF841ECBEF132
:101D7C005C0FCAD1013B9BB20DF1880C03F1010E33
:101D8C00634403F8402C1FFA8EF3B4E7FC040020E4
:101D9C00FD04002004020020E00300209803002032
:101DAC008E2A0008922A0008962A0008E3030020D5
:101DBC00402231461B4884F8506084F8527084F8F5
:101DCC00518000F050FD2846FEF7C4F92946024622
:101DDC00144800F03DFD012384F8E030FEF710FAC2
:101DEC0000F50840B83049E7032B0DD194F8E030EA
:101DFC0033B194F85030012B04BF02238BF8003020
:101E0C000320FFF763FB01E63BB994F8E030002BAD
:101E1C003FF4FCADFFF748FBF8E50120FFF756FB5C
:101E2C00F3E700BF9B030020014800F0CBBC00BFD0
:101E3C000800002008B5FFF755F8BDE80840FFF78B
:101E4C00D9BA70470E4B82B09A6942F001029A617E
:101E5C009A6902F001020092009ADA6942F080520B
:101E6C00DA61DB69074A03F080530193019B5368E5
:101E7C0023F0E06343F00073536002B0704700BF7F
:101E8C00001002400000014037B503681E4A0546A9
:101E9C00934222D11D4B1E4C9A69204642F400629B
:101EAC009A619B691B4A03F400630093009B102307
:101EBC0084E80C0000238022A36023616361A3618A
:101ECC004FF40053E260E361FEF71CFA08B1FFF730
:101EDC00B8FF2C62656203B030BDB3F1804FFAD10C
:101EEC0003F50433DA69072142F00102DA61DB6998
:101EFC00002203F0010301931C20019BFEF7AAF9B9
:101F0C001C20FEF7DBF9E6E7002C01400010024034
:101F1C00B80400205800024010B5044686B01022C8
:101F2C00002102A800F09FFC22681B4B9A4231D181
:101F3C0003F558439A6902A942F480429A619A695E
:101F4C00164802F480420092009A9A69002442F0EA
:101F5C0004029A619B6903F004030193019B4FF403
:101F6C00007302930223039303230593FEF7F2FB02
:101F7C004FF480630293012302A90848049303944D
:101F8C00FEF7E8FB252022460821FEF763F9252001
:101F9C00FEF794F906B010BD00380140000801406E
:101FAC007047FEE7FEE7FEE7FEE7704770477047B5
:101FBC00FEF71AB90148FEF713BA00BFB8040020A7
:101FCC000148FEF7A8BF00BF7C0500200F4B1A6824
:101FDC0042F001021A6059680D4A0A405A601A68A8
:101FEC0022F0847222F480321A601A6822F4802261
:101FFC001A605A6822F4FE025A604FF41F029A606B
:10200C004FF00062034B9A60704700BF0010024013
:10201C000000FFF800ED00E010B586B0FEF79CFA6A
:10202C000123002405930393094B01A902A80493EF
:10203C000294FEF741FB38B9FEF7A0FA0198431C55
:10204C005842584106B010BDFEF798FA2046F9E701
:10205C00007C0008FF289FBF800000F1006000F5A5
:10206C00F84003689ABF01200B6000207047FF28DE
:10207C0038B504460D4614D8FEF76EFA6B1C0AD020
:10208C00A40004F100612A46002301F5F841022066
:10209C00FEF7A8FA18B9FEF771FA012038BDFEF761
:1020AC006DFA002038BD0144B1F5807F0BDD0020B6
:1020BC007047830003F1006303F5F8431B6801309C
:1020CC0042F8043B80B28142F3DC012070470000EF
:1020DC00034B1A7812B100221A7070470122FBE7E9
:1020EC00220300204FF4C062044B1B785A434FF478
:1020FC00C07303FB0020024B1844704722030020DE
:10210C00BC05002030B50F4B0F4C1B7840EAC000CB
:10211C00B3FA83F24FF4C063520903FB024102FB92
:10212C000333C0B2234460F07F04002288548D181E
:10213C000232B2F5C07F6C70F8D101F5C0719942D2
:10214C00F3D130BD22030020BC05002038B500249B
:10215C00054D20462C70FFF7D5FF012320462B7030
:10216C00FFF7D0FF2C7038BD2203002070B5264B32
:10217C0080B21C78C0F15F06B4FA84F4B6B25F2E5C
:10218C004FEA541430D88BB2C3F10F0189B20F2926
:10219C002AD8072983BFC3F1070189B20825002576
:1021AC00032933B221D903F007000439DE100430BF
:1021BC0089B200EB061080B20DB1D200D2B24FF44E
:1021CC00C0656C434FF4C07505FB01410F4C4300D7
:1021DC00214411F810400133144301F81040C85C3D
:1021EC0060F07F000243CA5470BD032E09D9C0F1C0
:1021FC005B0080B2C30800F007000C3000EB03104A
:10220C00D9E73046D8E700BF22030020BC050020E8
:10221C002DE9F04F95B006939DF878309D4C0393C3
:10222C00BDF97C3002EB82020793BDF98030224469
:10223C000893BDF984300993BDF988300A930023C3
:10224C00D45C12ADEC540133052BF9D14FF00009DD
:10225C0083B201931F46BDF80C408BB205934FF02F
:10226C000008059E12AB13F8093043FA08F3DB079C
:10227C004DD408F101082644B8F1080FB6B2F1D1DB
:10228C0009F101092744B9F1050FBFB2E7D1039B4E
:10229C00012B11D900230293029B23F002039BB262
:1022AC00012B37D0029B01330293019B23449BB239
:1022BC000193029B052BEFD115B0BDE8F08F079A67
:1022CC00954212DB089A95420FDC06EB0A01099A3B
:1022DC0089B2914209DB0A9A914206DC1846069AA9
:1022EC0009B20093FFF742FF009B0AF1010A1FFAA3
:1022FC008AF2A242E3D30BF1010B1FFA8BF5A54234
:10230C00B7D23D44ADB22BB24FF0000AD7E74FF035
:10231C00000BF2E7059A0093029B0C920B920D9224
:10232C000F9212AA13441093029B12AAD35C04932B
:10233C00009B013B0E930E9A049B1341DD0716D4B0
:10234C00009B013300930F9B23449BB20F930D9B77
:10235C0023449BB20D930B9B23449BB20B930C9B7E
:10236C0023449BB20C93009B092BDDD19AE7109B65
:10237C0013F8018C0E9B48FA03F3D80729D5109B50
:10238C0093F801800E9B48FA03F3D907D8D4009B2D
:10239C009D1E48FA05F3DB0700F1A780009B48FA65
:1023AC0003F818F0010FCBD0049D009B1D4115F0D4
:1023BC000105C5D1039B9D42C2DA019BAFB207EB6D
:1023CC00030A0F9B1FFA8AFA1F44BFB24FF0000991
:1023DC00E8E0009B9D1E48FA05F3DA071BD4009B2E
:1023EC0048FA03F818F0010FC9D0049B009A43FA7D
:1023FC0002F616F00106C2D1039B9E42BFDA019B86
:10240C00B7B2A3EB070A0B9B1FFA8AFA1F44BFB2A1
:10241C004FF000095CE0049B43FA05F515F001054B
:10242C00DDD1039B9D42DADA019BAFB2A3EB070B24
:10243C000C9B1FFA8BFBDF1BBFB24FF0000A1DE099
:10244C00079A964212DB089A96420FDC07EB0901B9
:10245C00099A89B2914209DB0A9A914206DC184624
:10246C00069A09B21193FFF781FE119B09F101093C
:10247C001FFA89F2A242E3D30AF1010A1FFA8AF683
:10248C00A64205D25E44B6B233B24FF00009D7E78C
:10249C000135C6E7B22A0008079B9D4210DB089B5A
:1024AC009D420DDC07EB0801099B89B2994207DBC1
:1024BC000A9B994204DC069A09B25846FFF756FE6D
:1024CC0008F101081FFA88F3A342E5D309F10109C9
:1024DC001FFA89F5A54206D25544ADB20FFA85FB19
:1024EC004FF00008D8E7013686E7049B43FA05F560
:1024FC0015F001057FF452AF039B9D42BFF64EAF22
:10250C00019BAFB207EB030B0D9B1FFA8BFBDF1B81
:10251C00BFB24FF0000A1DE0079A964212DB089AF0
:10252C0096420FDC07EB0901099A89B2914209DB4B
:10253C000A9A914206DC1846069A09B20E93FFF7E6
:10254C0015FE0E9B09F101091FFA89F2A242E3D391
:10255C000AF1010A1FFA8AF6A64205D25E44B6B207
:10256C0033B24FF00009D7E70135C5E7079B9E4210
:10257C0010DB089B9E420DDC07EB0801099B89B21E
:10258C00994207DB0A9B994204DC069A09B2584629
:10259C00FFF7ECFD08F101081FFA88F3A342E5D31D
:1025AC0009F101091FFA89F6A64206D25644B6B2C1
:1025BC000FFA86FB4FF00008D8E70135FAE600BFAA
:1025CC0030B50F2487B0049400245F250394019444
:1025DC009DF8284002950094FFF71AFE07B030BD15
:1025EC002DE9F04F00261446354687B08B469DF8F2
:1025FC0044809DF84010824605911FFA88F101EB4A
:10260C0041004000C9000390049102EB030997B20A
:10261C00E01B4C4580B202D107B0BDE8F08F14F836
:10262C00012B0D2A02D1E51BADB2F1E70A2A06D126
:10263C0014F8023C01360D2BB6B2E9D1F3E7049B3A
:10264C00401B03FB06B1039BCDF8008000FB03A0ED
:10265C0009B2059B00B2FFF7B3FFD9E72DE9F04FA4
:10266C008FB008919DF8601082460991BDF96810F1
:10267C009DF864B00A91BDF96C101D460B91BDF923
:10268C0070100C91BDF974100D91002B44D04FF0CB
:10269C000008144646461FFA8BF303EB4307DB0096
:1026AC00069353197F0007931FFA82F9079BA4EB3B
:1026BC0009009C4280B205D107FB05A528B20FB0DA
:1026CC00BDE8F08F14F8012B0D2A03D1A4EB0906F9
:1026DC00B6B2EBE70A2A08D114F8023C08F101085B
:1026EC000D2B1FFA88F8E1D1F0E7069B0899801BA7
:1026FC0003FB08110D9B00FB07A004930C9BCDF86A
:10270C0000B003930B9B09B202930A9B00B2019396
:10271C00099BFFF77DFDC9E71846D0E7002103E0D0
:10272C000B4B5B58435004310A480B4B42189A42EE
:10273C00F6D30A4A02E0002342F8043B084B9A42C3
:10274C00F9D3FFF743FC00F05FF8FEF7E5FF7047A5
:10275C00482E000800000020E8010020E8010020BD
:10276C00BC110020FEE7B0F88030B0F882200133B5
:10277C0092B203F07F0393421FBFB0F8802092B255
:10278C008154A0F8803070470346B0F88010B0F840
:10279C00822089B292B291421FBFB0F8822092B2CD
:1027AC00805CB3F882200FBFFF20013202F07F0261
:1027BC00A3F88220704783681A68D36843F020031B
:1027CC00D360704708B583681A68136813F0200348
:1027DC0006D051680068C9B2FFF7C5FF012008BDDB
:1027EC00184608BD0068FFF7CFBF0368B3F8800038
:1027FC00B3F8823080B29BB2C01A18BF0120704768
:10280C000A22002100F0DCB870B500250C4E0D4CEE
:10281C00A41BA410A54209D100F00AF900250A4E08
:10282C000A4CA41BA410A54205D170BD56F8253046
:10283C0098470135EEE756F8253098470135F2E711
:10284C00402E0008402E0008402E0008442E0008A0
:10285C0010B5431E0A44914200D110BD11F8014B32
:10286C0003F8014FF7E703460244934200D1704747
:10287C0003F8011BF9E7024610B513461C78013228
:10288C00002CFAD1013B11F8012B03F8012F002A7F
:10289C00F9D110BDC9B2034610F8012B1AB19142FF
:1028AC00F9D11846704700290CBF18460020704714
:1028BC00034611F8012B03F8012B002AF9D17047BC
:1028CC002DE9F84F8046894692461F468B465D4659
:1028DC000A9815F8014B00F089F82044467816F058
:1028EC0008060BD12D2C0BD101262C780BF10205EF
:1028FC0067B1102F14D1302C0AD011E0AB46E6E7AB
:10290C002B2C04BF2C780BF10205F1E7302C27D1CE
:10291C002B7803F0DF03582B4BD110276C78023542
:10292C00002E0CBF6FF000414FF000410022B1FBB4
:10293C00F7FE104607FB1E1CA4F13003092B11D81F
:10294C001C46A7421DDD531C07D0864516D301D16A
:10295C00A44513DB012200FB074015F8014BEBE704
:10296C000A27DDE7A4F14103192B01D8373CE8E72E
:10297C00A4F16103192B04D8573CE2E74FF0FF3266
:10298C00EBE7531C08D122230846C8F80030BAF1F3
:10299C00000F07D1BDE8F88F06B14042BAF1000F25
:1029AC000CD022B1013DCAF80050BDE8F88F4D465D
:1029BC00F9E73024002FB3D10827B1E7BDE8F88F31
:1029CC00084B37B51C68084D236A002B08BF2B46F3
:1029DC00009313460A4601462046FFF771FF03B0E9
:1029EC0030BD00BF180000207C000020D0F8EC00A7
:1029FC00704782B001B901A942B14BB113780B6099
:102A0C001278101C18BF012002B070471046FBE76B
:102A1C006FF00100F8E749B1FF2A8BBF8A230A70D7
:102A2C000360012088BF4FF0FF30704708467047A5
:102A3C00F8B500BFF8BC08BC9E467047F8B500BF9F
:082A4C00F8BC08BC9E4670476F
:102A540002030405060708090A0B0C0D0E0F1010DB
:102A640052657370617469005054204B455245544B
:102A7400412041504920494E444F4E45534941203D
:102A8400285045525345524F2900424C4B004D5358
:102A94004700444546000000000000000000010219
:102AA40003040607080900000000010203040000F3
:102AB4000000003E5B4F5B3E3E6B4F6B3E1C3E7C1A
:102AC4003E1C183C7E3C181C577D571C1C5E7F5EC8
:102AD4001C00183C1800FFE7C3E7FF001824180087
:102AE400FFE7DBE7FF30483A060E2629792926401E
:102AF4007F050507407F05253F5A3CE73C5A7F3E4A
:102B04001C1C08081C1C3E7F14227F22145F5F00DB
:102B14005F5F06097F017F006689956A6060606077
:102B24006094A2FFA29408047E040810207E201062
:102B340008082A1C08081C2A08081E101010100C6B
:102B44001E0C1E0C30383E3830060E3E0E060000B9
:102B540000000000005F00000007000700147F145D
:102B64007F14242A7F2A12231308646236495620CC
:102B7400500008070300001C2241000041221C00F1
:102B84002A1C7F1C2A08083E0808008070300008B0
:102B940008080808000060600020100804023E5184
:102BA40049453E00427F4000724949494621414916
:102BB4004D331814127F1027454545393C4A49497D
:102BC4003141211109073649494936464949291EE7
:102BD40000001400000040340000000814224114D6
:102BE40014141414004122140802015909063E4128
:102BF4005D594E7C1211127C7F494949363E414150
:102C040041227F4141413E7F494949417F090909A8
:102C1400013E414151737F0808087F00417F410014
:102C24002040413F017F081422417F404040407FC3
:102C3400021C027F7F0408107F3E4141413E7F0910
:102C44000909063E4151215E7F0919294626494951
:102C5400493203017F01033F4040403F1F20402091
:102C64001F3F4038403F631408146303047804038F
:102C74006159494D43007F4141410204081020003D
:102C84004141417F040201020440404040400003AE
:102C940007080020545478407F284444383844447A
:102CA4004428384444287F385454541800087E0972
:102CB4000218A4A49C787F0804047800447D400092
:102CC4002040403D007F1028440000417F40007CAC
:102CD400047804787C080404783844444438FC18A4
:102CE40024241818242418FC7C0804040848545488
:102CF400542404043F44243C4040207C1C204020B5
:102D04001C3C4030403C44281028444C9090907C1B
:102D14004464544C4400083641000000770000002D
:102D24004136080008040810083C2623263C4300CA
:102D3400504F534958002E000020202020202020EE
:102D44002020282828282820202020202020202057
:102D54002020202020202020208810101010101067
:102D640010101010101010101004040404040404B3
:102D7400040404101010101010104141414141414D
:102D8400010101010101010101010101010101012F
:102D9400010101011010101010104242424242423F
:102DA40002020202020202020202020202020202FF
:102DB40002020202101010102000000000000000A7
:102DC40000000000000000000000000000000000FF
:102DD40000000000000000000000000000000000EF
:102DE40000000000000000000000000000000000DF
:102DF40000000000000000000000000000000000CF
:102E040000000000000000000000000000000000BE
:102E140000000000000000000000000000000000AE
:102E2400000000000000000000000000000000009E
:0C2E340000000000000000000000000092
:042E40003101000854
:042E44000D01000874
:102E48000100000010000000140200209A02002077
:102E5800380400200024F4001C00002000000000BA
:102E6800000000000000000000000000000000005A
:102E7800000000000000000000000000000000004A
:102E8800000000000000000000000000000000003A
:102E9800000000000000000000000000000000002A
:102EA800000000000000000000000000000000001A
:102EB80000000000000000000000000043000000C7
:102EC80000000000000000000000000000000000FA
:102ED80000000000000000000000000043000000A7
:102EE80000000000000000000000000000000000DA
:102EF8000000000000000000000000004300000087
:102F080000000000000000000000000000000000B9
:102F18000000000000000000000000004300000066
:102F28000000000000000000000000000000000099
:102F38000000000000000000000000004300000046
:102F48000000000000000000000000000000000079
:102F58000000000000000000000000004300000026
:102F68000000000000000000000000000000000059
:102F78000000000000000000000000004300000006
:102F88000000000000000000000000000000000039
:102F9800000000000000000000000000232A0008D4
:102FA800FF290008000000003C2D00083A2D000809
:102FB8008D2A00088D2A00088D2A00088D2A00080D
:102FC8008D2A00088D2A00088D2A00088D2A0008FD
:102FD8008D2A0008FFFFFFFFFFFFFFFFFFFFFFFF36
:102FE800FFFF000001004153434949000000000071
:102FF80000000000000000000000000000000000C9
:10300800000000000000415343494900000000004F
:1030180000000000000000000000000000000000A8
:083028000000000000000000A0
:04000005080027299F
:00000001FF
