:020000040800F2
:1000000000500020A9240008291E00082B1E00080B
:100010002D1E00082F1E0008311E000800000000E1
:10002000000000000000000000000000331E000877
:10003000351E000800000000371E0008391E0008A9
:10004000F1240008F1240008F1240008F12400083C
:10005000F1240008F1240008F1240008F12400082C
:10006000F1240008F1240008F1240008F12400081C
:10007000F1240008F1240008F12400083D1E0008C6
:10008000F1240008F1240008F1240008F1240008FC
:10009000F1240008F1240008F1240008F1240008EC
:1000A000F1240008F1240008F1240008F1240008DC
:1000B000491E0008F1240008F1240008F12400087A
:1000C000F1240008F1240008F1240008F1240008BC
:1000D000F1240008951C0008F1240008F124000810
:1000E000F1240008F1240008F124000800000000B9
:1000F0000000000000000000000000000000000000
:0C01000000000000000000005FF808F1A3
:10010C0010B5054C237833B9044B13B10448AFF345
:10011C0000800123237010BDE801002000000000C6
:10012C00BC27000808B5034B1BB103490348AFF3C8
:10013C00008008BD00000000EC010020BC27000876
:10014C0010F8012B11F8013B012A28BF9A42F7D075
:10015C00D01A7047034613F8012B002AFBD1181A4A
:10016C000138704738B50E4B054618784FF47A7342
:10017C00B3FBF0F30B4A1068B0FBF3F000F0A0F8FF
:10018C00044658B90F2D09D8024629464FF0FF30C6
:10019C0000F054F8044B20461D6038BD012038BDDA
:1001AC00000000201400002004000020074A08B5BD
:1001BC001368032043F01003136000F02DF80020A7
:1001CC00FFF7D0FF01F07CFD002008BD00200240AD
:1001DC00034A044B11681B780B441360704700BF33
:1001EC001C03002000000020014B1868704700BF62
:1001FC001C03002038B50446FFF7F6FF0546631CC8
:10020C001EBF044B1B78E418FFF7EEFF401B844223
:10021C00FAD838BD00000020074A0002D36800F469
:10022C00E06023F4E0631B041B0C43F0BF6343F456
:10023C0000330343D360704700ED00E0174B30B53B
:10024C00DC68C4F30224C4F10703251D042B28BF6A
:10025C000423062D4FF0010598BF002405FA03F383
:10026C0003F1FF3388BF033C1940A14005FA04F4A5
:10027C00013C2240002842EA01024FEA0212A9BFC7
:10028C0000F16040064BD2B200F56140BBBF00F0FC
:10029C000F00D2B280F800231A5430BD00ED00E0FC
:1002AC0014ED00E0002808DB0123420900F01F00D8
:1002BC0003FA00F0014B43F82200704700E100E024
:1002CC000138B0F1807F0AD2F021064B064A586003
:1002DC0082F823100020072298601A6070470120D2
:1002EC00704700BF10E000E000ED00E010B530B347
:1002FC0014220168134B84680B44B3FBF2F39B008C
:10030C000364114B0A68C363436822F47F5223438E
:10031C00C46822F030022343046923434469234315
:10032C0084692343C469234313430B6001220023D4
:10033C0080F82120836380F82030184610BD0120FE
:10034C0010BD00BFF8FFFDBF00000240F0B590F8F3
:10035C002040012C35D0012490F8215080F8204009
:10036C00A5424FF000064FF0020428D180F821403E
:10037C00046886632668076C26F001062660C66B47
:10038C00BD407560636043680568102BC36A0BBF82
:10039C00A260A160E160E2604BB1236843F00E0300
:1003AC0023602B68002043F001032B60F0BD236811
:1003BC0023F004032360236843F00A03F0E780F87A
:1003CC0020600220F0BD000070B40425C66B026CE6
:1003DC003468036895402542196832D04D0730D5F2
:1003EC001A6896065EBF1A6822F004021A603E4A2A
:1003FC00934219D01432934218D01432934217D02E
:10040C001432934217D01432934217D014329342C1
:10041C000CBF4FF480034FF08063344A5360C36ABF
:10042C00002B5ED070BC18470423F6E74023F4E79A
:10043C004FF48063F1E74FF48043EEE74FF48023F1
:10044C00EBE702259540254235D08D0733D51A6848
:10045C00940606D41A6822F00A021A60012280F867
:10046C002120214A934219D01432934218D01432CD
:10047C00934217D01432934217D01432934217D0B0
:10048C00143293420CBF4FF400134FF00073174A11
:10049C005360002380F82030836AC1E70223F6E71B
:1004AC002023F4E74FF40073F1E74FF40053EEE729
:1004BC004FF40033EBE708259540254211D009078E
:1004CC000FD5196821F00E011960012303FA02F20D
:1004DC007260836380F82130002380F82030036B36
:1004EC009EE770BC704700BF08000240000002404D
:1004FC002DE9F74F00242646664BDFF8A8E1DFF81C
:10050C00A8C10A6832FA06F502D103B0BDE8F08F33
:10051C004FF0010808FA06F802EA080290457FD16C
:10052C004D68122D00F0AA8000F28380022D00F09D
:10053C00A28077D8002D00F08980012D00F09980E1
:10054C004FF00F09FF2A93BF824606F18045083D04
:10055C00D0F800B092BFB500D0F804B0AD0009FAE5
:10056C0005F82BEA080804FA05F588BF00F1040A1F
:10057C0048EA0505CAF80050D1F804A01AF0805FCB
:10058C004ED0454D444FAD6926F0030845F00105AA
:10059C00BD61BD6908F1804805F00105019508F5BC
:1005AC00803806F0030B019D4FEA8B0BD8F80850EE
:1005BC0009FA0BF925EA0909384DA84263D005F56B
:1005CC008065A84261D005F58065A8425FD005F52D
:1005DC008065A8420CBF0325042505FA0BF545EAF6
:1005EC000905C8F808501D681AF4803F14BF15435C
:1005FC0095431D605D681AF4003F14BF1543954385
:10060C005D609D681AF4801F14BF154395439D606F
:10061C00DD681AF4001F14BF2A4325EA0202DA60CF
:10062C0001366EE7032D22D0112D89D1CC6804340C
:10063C0086E71B4FBD4209D012D8DFF870904D45AC
:10064C0004D009F580394D457FF47AAF8C68C4B17C
:10065C00012C0CBFC0F81080C0F8148008246FE780
:10066C007545F3D06545F1D0DFF84490EBE70024F5
:10067C0066E7CC6864E7CC68083461E7CC680C3476
:10068C005EE704245CE70025A7E70125A5E7022522
:10069C00A3E700BF00040140001002400008014025
:1006AC000000211000003110000032100000111069
:1006BC00000022100AB1016170470904FBE738B54C
:1006CC000446D8B14CF6CC4203681A6045F2555238
:1006DC001A6042685A6082689A60FFF785FD054689
:1006EC002368D86818B94AF6AA221A6038BDFFF7F1
:1006FC007BFD401B3028F3D9032038BD012038BDC9
:10070C004AF6AA22036800201A6070472DE9F341CB
:10071C00054608B901203CE00368DB0710D42B68C0
:10072C009F075DD42B68190700F194802B685A073A
:10073C0000F1BE80E869002840F02C81002028E000
:10074C008F4C636803F00C03042B07D0636803F031
:10075C000C03082B09D16368DE0306D523689C03C0
:10076C00DDD56B68002BDAD1D4E76B68B3F5803F2D
:10077C0012D1236843F480332360FFF735FD06461E
:10078C0023689803CBD4FFF72FFD801B6428F7D97F
:10079C00032002B0BDE8F0819BB9236823F48033B9
:1007AC002360236823F480232360FFF71DFD064696
:1007BC0023689903B3D5FFF717FD801B6428F7D97D
:1007CC00E6E7B3F5A02F236803D143F4802323601D
:1007DC00CFE723F480332360236823F48023CBE713
:1007EC00674C636813F00C0F07D0636803F00C03BD
:1007FC00082B10D16368DA030DD423689B0702D54C
:10080C002B69012B86D123686A6923F0F80343EA2C
:10081C00C203236086E72A695A4B6AB101221A6027
:10082C00FFF7E2FC064623689F07ECD4FFF7DCFCDD
:10083C00801B0228F7D9ABE71A60FFF7D5FC0646F8
:10084C00236898077FF56EAFFFF7CEFC801B02285C
:10085C00F6D99DE7AA694A4C4B4BDAB101221A60D2
:10086C00FFF7C2FC0646636A9B070DD54FF4FA529C
:10087C00464B1B68B3FBF2F3019300BF019B5A1E5E
:10088C000192002BF9D151E7FFF7AEFC801B022837
:10089C00E9D97DE71A60FFF7A7FC0646636A9F0754
:1008AC007FF544AFFFF7A0FC801B0228F6D96FE759
:1008BC00334CE369D80024D40127E36943F0805317
:1008CC00E361E36903F080530093009B304E33687F
:1008DC00D90518D5EB68012B26D1236A43F0010307
:1008EC002362FFF781FC41F288368046236A9B071E
:1008FC003FD5002F3FF41EAFE36923F08053E36133
:10090C0018E70027E2E7336843F480733360FFF79E
:10091C006BFC80463368DA05DCD4FFF765FCA0EB92
:10092C0008006428F6D933E7ABB9236A41F288385A
:10093C0023F001032362236A23F004032362FFF7ED
:10094C0053FC0646236A9807D3D5FFF74DFC801B52
:10095C004045F7D91CE7052B236A03D143F0040368
:10096C002362BAE723F001032362236A23F0040312
:10097C00B6E7FFF739FCA0EB0800B042B6D907E7A1
:10098C000010024000004242800442421400002049
:10099C00007000402A4B5A681C4602F00C02082AD0
:1009AC003DD00023274E022833602BD1FFF71CFCCF
:1009BC000746236899011FD42B6AB3F5803F05D1F4
:1009CC006268A96822F400320A436260696A62684C
:1009DC000B4322F474121343636001233360FFF75B
:1009EC0003FC054623689A013FF5A8AEFFF7FCFB14
:1009FC00401B0228F6D9CBE6FFF7F6FBC01B0228FA
:100A0C00D7D9C5E6FFF7F0FB054623689B017FF5B8
:100A1C0095AEFFF7E9FB401B0228F6D9B8E6012892
:100A2C003FF4B7AE58682B6A00F480329A427FF4D8
:100A3C0071AE6B6A00F47010C01A18BF0120A8E6E2
:100A4C00001002406000424230B5194B87B002AC36
:100A5C0003F11005224618685968083303C2AB42EB
:100A6C001446F7D101238DF80430022311498DF877
:100A7C0005304B6803F00C02082A17D1C3F38342EC
:100A8C0006A80244DB0312F8102C0CD54B680A485C
:100A9C00C3F34043504306AA134413F8143CB0FB71
:100AAC00F3F007B030BD05485043FAE70248F8E7C9
:100ABC00D42700080010024000127A0000093D0003
:100ACC002DE9F0410D46044610B90120BDE8F08136
:100ADC00454A136803F007038B4229D321688E071C
:100AEC0031D4CA0744D4404A136803F007039D422B
:100AFC0067D322683D4D12F0040F6ED1130706D553
:100B0C006B68226923F4605343EAC2036B60FFF7FE
:100B1C009BFF6B68364AC3F30313D35CD840354B49
:100B2C001860354B1868FFF71DFB0020BDE8F081FD
:100B3C00136823F007030B431360136803F00703D8
:100B4C009942C2D1CAE7294B11F0040F1EBF5A6853
:100B5C0042F4E0625A60080742BF5A6842F460529D
:100B6C005A605A68A06822F0F00202435A60B8E753
:100B7C0062681E4E012A33681BD113F4003FA4D0C7
:100B8C00736841F2883823F0030313437360FFF753
:100B9C002BFB07467368626803F00C03B3EB820F00
:100BAC00A1D0FFF721FBC01B4045F3D90320BDE8C2
:100BBC00F081022A02D113F0007FE0E713F0020F5C
:100BCC00DDE7136823F007032B431360136803F06E
:100BDC0007039D427FF479AF8BE76B68E16823F4E0
:100BEC00E0630B436B6089E7002002400010024079
:100BFC00152800081400002004000020044B054AAE
:100C0C005B68C3F30223D35C034A1068D840704777
:100C1C00001002402528000814000020044B054A4F
:100C2C005B68C3F3C223D35C034A1068D840704797
:100C3C00001002402528000814000020022380F830
:100C4C003D3003689A6802F00702062A1EBF1A6834
:100C5C0042F001021A60012380F83D3000207047F9
:100C6C0003680020DA6842F00102DA609A6802F048
:100C7C000702062A1EBF1A6842F001021A6070476A
:100C8C000368DA6822F00102DA6041F21112196A83
:100C9C00114208D140F24442196A114202BF1A684B
:100CAC0022F001021A6000207047704770477047AD
:100CBC007047036810B51A69044691070ED5DA68B7
:100CCC0092070BD56FF002021A6101229B69027721
:100CDC009B0777D0FFF7EAFF0023237723681A6975
:100CEC00500710D5DA6851070DD56FF004021A6160
:100CFC0002229B69227713F4407F204668D0FFF7CD
:100D0C00D5FF0023237723681A6912070FD5DA68F9
:100D1C0010070CD56FF008021A610422DB692277E8
:100D2C00990720465AD0FFF7C1FF00232377236889
:100D3C001A69D20610D5DA68D0060DD56FF01002FC
:100D4C001A610822DB69227713F4407F20464BD0CE
:100D5C00FFF7ACFF0023237723681A69D10708D566
:100D6C00DA68D20705D56FF0010220461A6100F04F
:100D7C0091FF23681A69100608D5DA68110605D5A3
:100D8C006FF0800220461A6100F045F923681A6959
:100D9C00520608D5DA68500605D56FF04002204699
:100DAC001A61FFF785FF23681A69910622D5DA6864
:100DBC0092061FD56FF020022046BDE810401A6144
:100DCC0000F028B9FFF771FF2046FFF770FF83E7AB
:100DDC00FFF76BFF2046FFF76AFF92E7FFF765FF0F
:100DEC002046FFF764FFA0E7FFF75FFF2046FFF701
:100DFC005EFFAFE710BD00001A4A036890420AD0AC
:100E0C00B0F1804F07D0A2F59432904203D002F596
:100E1C008062904215D14A6823F070031343114A43
:100E2C0090420AD0B0F1804F07D0A2F59432904294
:100E3C0003D002F58062904203D1CA6823F4407358
:100E4C0013434A6923F08003134303608B68C36226
:100E5C000B688362034B984204BF0B690363012345
:100E6C0043617047002C014010B50446A0B190F8C6
:100E7C003D3003F0FF021BB980F83C2000F042FF2C
:100E8C000223206884F83D30211DFFF7B5FF0123B4
:100E9C00002084F83D3010BD012010BD10B58468D1
:100EAC000A4324F47F4442EA03232343836010BDA6
:100EBC0090F83C3070B5012B04464FF0020019D06D
:100ECC00012384F83D00206884F83C30836823F4C7
:100EDC007F4323F0770383600B68402B65D015D8D4
:100EEC00102B0CD007D853B10123002084F83D30CF
:100EFC0084F83C0070BD202B01D0302BF4D18268DB
:100F0C0043F0070322F0700213431AE0602B34D035
:100F1C0019D8502BE8D14A68CE68016A056A21F0CD
:100F2C000A0125F00105056283690A4323F0F003E9
:100F3C0043EA061383610262836823F0700343F073
:100F4C0057038360D0E7702B0CD0B3F5005FCBD187
:100F5C00CB684A688968FFF7A1FF2268936843F45D
:100F6C00804308E0CB684A688968FFF797FF2268DE
:100F7C00936843F077039360B6E74D68CE68016AD7
:100F8C0021F0100101628269036A22F4704223F09D
:100F9C00A00343EA051342EA0632826103628368C6
:100FAC0023F0700343F06703CBE74A68CE68016A0D
:100FBC00056A21F00A0125F00105056283690A43DF
:100FCC0023F0F00343EA061383610262836823F083
:100FDC00700343F04703B4E790F83C3030B5012B75
:100FEC004FF0020314D0046880F83D306268A368A7
:100FFC000D68496822F0700223F080030B432A43EA
:10100C006260A360012380F83D30002380F83C30FF
:10101C00184630BD7047704738B505460368C1683F
:10102C001A69192422F440520A431A618268006931
:10103C00D9680243686921F4B05121F00C010243D4
:10104C000A43DA605A69A96922F440720A435A6168
:10105C000D4A934214D1FFF7E1FD60436C686422A2
:10106C00A400B0FBF4F0B0FBF2F402FB14031B0180
:10107C003233B3FBF2F3296803EB04138B6038BDF6
:10108C00FFF7BCFDE9E700BF0038014010B504468E
:10109C0040B390F8393003F0FF021BB980F83820C8
:1010AC0000F078FE2423226884F83930D368204677
:1010BC0023F40053D360FFF7AFFF236800201A69B5
:1010CC0022F490421A615A6922F02A025A61DA68B3
:1010DC0042F40052DA602023E06384F8393084F85B
:1010EC003A3010BD012010BD034B1A78012AFCD0F8
:1010FC0001221A70704700BF940200204FF47F0346
:10110C001A4A70B513614FF4004313611023184948
:10111C00184C0B612068C8604FF4801008614FF0C8
:10112C0000411161226801320F2A226007D9002682
:10113C00114D26602B7813B100F0ACFE2E70206898
:10114C00C0B200F0B1FE00220C4B18600C4B1B68B7
:10115C005A62226822B90B4B197809B11A7070BD0A
:10116C000748BDE87040FFF77BBD00BF0008014099
:10117C00000C01400C02002094020020040200200C
:10118C00CC0F002009020020F0B5E1B04FF4C07282
:10119C000021684601F027FA8048FEF7DBFF0024A7
:1011AC007E4A80B2A3B2984205D89DF800302BB984
:1011BC00012061B0F0BDA35C2C2B20D1784968468E
:1011CC00FEF7BEFF05460028F2D101464FF4CE7261
:1011DC00744801F008FA744B4FF4C0721C44294651
:1011EC00684601F000FA2046FEF7B4FF80B2ABB2BD
:1011FC009842264607D89DF8003043B9D8E70DF839
:10120C0004300134CEE714F8013B2C2B1FD1684677
:10121C0001F0B6F90128CBD8684601F0B1F9634C5E
:10122C004FF4C07284F8A00101360021684601F029
:10123C00DAF93046FEF78EFF3346002280B291B2C7
:10124C0088421D4607D89DF8003043B9B0E70DF829
:10125C0005300135CBE713F8011B2C291AD11022CC
:10126C000021684601F06CFA01354FF4C072002180
:10127C000746684601F0B7F92846FEF76BFF2B4688
:10128C00002280B291B288421E4609D89DF80030E7
:10129C0053B98DE72A29E2D00DF802100132CEE7BE
:1012AC0013F8011B2C2947D110220021684601F0AC
:1012BC0047FA94F8A031BDB2012B07F0070784F868
:1012CC00A2713FD1002384F8A3314FF47A73C5F394
:1012DC0087155D43C4F82453FEF786FFD4F82433F6
:1012EC001844C4F8240394F8A051FDB97378222B48
:1012FC007FF45EAF29464FF4C0720236684601F0A7
:10130C0072F93046FEF726FF294680B28BB298421E
:10131C0035D89DF80030002B3FF44AAF6846FEF7F5
:10132C0019FF69460246224801F052F994F8A301CC
:10133C0060BB012323703CE72A29B5D00DF80210BD
:10134C0001329FE7002BCED183B2C5F3401284F853
:10135C00A321C5F3C105C3F3C202013500F0070098
:10136C0084F82A23C3F30322C3F3811384F8A15115
:10137C0084F8290384F82D2384F82B33B3E7735CAA
:10138C00222BCBD00DF801300131BFE74FF4CE72D8
:10139C000449881801F01CF900200AE7CA0D002046
:1013AC000E2800084C050020CB0D0020AC030020BB
:1013BC005005002038B5084C05462046FEF7CAFEFD
:1013CC00A84206D90A21601901F024F908B1001BC2
:1013DC0038BD4FF0FF3038BDB40300202DE9F0418B
:1013EC000D46144680460C48FEF7B4FEA54282BF5B
:1013FC002B4625461C46A8420BD3844228BF0446E4
:10140C000023054E4046A75D7119A35501F010F954
:10141C00A755BDE8F08100BFB403002010B590B013
:10142C002822002106A801F0DEF80021142201A8D0
:10143C0001F0D9F8092306934FF4803301220224DA
:10144C0007930E934FF4E01306A80A920C920F9395
:10145C000D94FFF75BF90F234FF480620193002387
:10146C00214601A80294039304920593FFF728FBED
:10147C0010B010BD2DE9F04FC14D97B0FEF796FEA0
:10148C00FFF7CCFF102200210EA801F0ACF8AB69DD
:10149C00012243F01003AB61AB694FF4005103F030
:1014AC0010030893089BAB69B64843F02003AB616B
:1014BC00AB69002403F020030993099BAB694FF03F
:1014CC00010943F00403AB61AB69032603F0040389
:1014DC000A930A9BAB69052743F00803AB61AB6920
:1014EC004FF4805803F008030B930B9BFFF7E2F8C3
:1014FC00002248F2BF01A448FFF7DCF800221F21AC
:10150C00A248FFF7D7F84FF400530EA99D480E934D
:10151C001196CDF83C901094FEF7EAFF4FF440433F
:10152C000EA998480E930F96FEF7E2FF48F2BF0300
:10153C000EA995480E931196CDF83C901094FEF799
:10154C00D7FF4FF4CA530EA98F480E930F96FEF790
:10155C00CFFF1F230EA98D480E931196CDF83C900A
:10156C001094FEF7C5FF4FF6E0730EA987480E9353
:10157C000F96FEF7BDFF6B69224643EA09036B61C8
:10158C006B69062103EA090307930F20079BFEF7FB
:10159C0055FE0F207E4DFEF785FE102221460EA82B
:1015AC0001F021F87B4B284685E818000C940D942B
:1015BC00AC60EF602C616C61AC61FFF755FC0EA95F
:1015CC002846CDF83880FFF773FC0CA928460C94FC
:1015DC000D94FFF701FD102221460EA801F003F82F
:1015EC004FF080436C4E0C9486E8180047F22F5352
:1015FC003046F360B4603461B4610D94FFF734FC91
:10160C000EA93046CDF83880FFF752FC20230CA9E8
:10161C0030460C934FF0040A0D94FFF7DDFC4FF4A9
:10162C00164C5E485E4BDFF8A08180E808108460A1
:10163C00C4600461C0F814A08461C461FFF726FD86
:10164C00584B404688E8080440F27123C8F808302B
:10165C00FFF735F84046FFF753F800F059FC2046E9
:10166C0000F022FC504B2A681860D368284643F4DB
:10167C008073D3604D4A4E4B9A62FFF7DFFA3046C7
:10168C00FFF7EEFA4046FFF73BF8204600F01CFC53
:10169C00484E49490EA800F0CBFFCDF80490CDF888
:1016AC00009007230EAA21464B2000F059FE86F825
:1016BC0000904046FFF724F87C1E6420FEF79AFD4C
:1016CC0014F0FF07F5D1384600F0FEFB0123337010
:1016DC00337803F0FF05002BFAD1384C4FF4CE725F
:1016EC00294604F54F702570657000F07CFF4FF4AF
:1016FC00CE722946201D00F076FF4FF4CE7229469B
:10170C0004F5D07000F06FFF0126022384F83E63CD
:10171C0084F83D3384F83F63FEF766FD00F508401E
:10172C00B830C4F8C004264904F5507000F080FFAE
:10173C0084F8C96484F8C56484F8C75484F8C65422
:10174C00204800F0F8FE204F204E00253846FEF7CA
:10175C00D7FF1C488DF830508DF8315000F005FF44
:10176C0000283ED0174800F0FDFE24288DF83000EC
:10177C0054D14FF400722946154800F034FF29E08B
:10178C00001002400010014000080140000C014014
:10179C006C030020002C0140CC0F00202C030020F7
:1017AC0000380140003000400402002009110008FC
:1017BC008408002094020020E4270008AC030020D9
:1017CC00EC2700080800002020030020080200205D
:1017DC00CA0D00200CA9B94800F00DFF0DB1FFF7A0
:1017EC00D3FC23783BB394F8A031002B54D1E3798C
:1017FC00DBB1B3494FF4CE72A1F5CE7000F0E8FE28
:10180C00FEF7F2FC03236370002300F50840B830A8
:10181C00C4F8880184F88C3123700CE0A0F12A0EF6
:10182C00DEF1000545EB0E05D4E723791BB994F8DE
:10183C008C31072BDDD06378012B13D0FEF7D4FC51
:10184C00D4F8883198420DD39E494FF4CE72A1F54D
:10185C004E7000F0BDFE00230122C4F88831627086
:10186C0084F88C312379002B7FF46FAF94F88C21A2
:10187C00062A00F2DC8001A151F822F0C9180008F8
:10188C00E319000857170008411A0008171C000834
:10189C00271C00087D1C0008012BCCD188494FF473
:1018AC00CE72A1F5CE7000F093FE0223A079637086
:1018BC0000F00AFBFFF718FC0023ADE794F8902129
:1018CC00C4F89431012A1FBF6379C3F104025B0889
:1018DC0003EB8203C4F8983194F89131033B012B4C
:1018EC0027D8002540F202520021774800F07BFEF9
:1018FC00A946DFF8D4814846FFF75CFD00284FEA83
:10190C00C51A09F1010027DAFFF754FD0028C2447B
:10191C0002DA6E48FEF71EFC024649465046FFF7B7
:10192C005DFD6B1C88F801350023C4F89831C4F8B0
:10193C00943194F88D31012B25D0022B45D04FF4E6
:10194C007A73C4F89C3194F89131002B41D1A3796E
:10195C00002B3ED107231BE0FFF72CFD08EB0A0BF5
:10196C00B0F1000A0DDA5948FEF7F4FB024649467D
:10197C0058460135FFF732FD0A2D0AF10109BAD19B
:10198C00CFE75246F3E7FA22C4F89C2100223270CA
:10199C0084F88C3194F89131012B7FF4D6AE002071
:1019AC0000F092FA4948FEF7D5FB6379B4F9981127
:1019BC00B4F994510193A379444A009383B2284615
:1019CC0000F0CEFCFFF790FBBFE6C023C4F89431C7
:1019DC00B5E70323DCE7FEF707FCD4F89C3198420B
:1019EC00FFF4B3AE002000F06FFA3378D8070FD5B0
:1019FC003648FEF7AFFB6379B4F99451B4F99811FA
:101A0C000193A379314A009383B2284600F0A8FCD5
:101A1C00FFF76AFBFEF7E8FB3378FA300133DBB2F1
:101A2C00052BC4F89C0133707FF68FAE032384F82A
:101A3C008C318AE6FEF7D8FBD4F89C319842FFF43F
:101A4C0084AE94F891310020033B012B00F29E8070
:101A5C0000F03AFA4FF000084FF0060ADFF86890F1
:101A6C0099F80135984533DBFFF73EFB94F891313B
:101A7C00032B67D194F88E3199F80155022BD4F8C9
:101A8C00983118BF05F1FF35D9064FEA451555D1E8
:101A9C00FEF7AAFB00F2DC50D4F89831C4F89C0194
:101AAC000133AB42C4F898317FF74FAE94F88E31C6
:101ABC00012B40F08C800423B9E700BFCA0D002035
:101ACC004C050020E8060020C8080020B4030020C4
:101ADC0009EBC81B5846FEF73DFB38B394F88F3121
:101AEC0094F89121022B09BF657900250AFB05F5B5
:101AFC00454304BFC5F1C00595FBF3F56379032A93
:101B0C00C3F104014FEA810113D1A1EB4811D4F8C0
:101B1C0098211144D4F894210193A379154400938E
:101B2C005A4683B209B228B200F01AFC08F1010837
:101B3C0096E7042A08BF01EB4811E8E7FEF754FBCF
:101B4C001930A9E7042B7FF400AE6FF01F0594F851
:101B5C008E31022B99F8013518BF03F1FF335D4329
:101B6C00D4F89831DA060DD1FEF73EFB00F2DC50CA
:101B7C00D4F89831C4F89C01013BAB42C4F89831BD
:101B8C0094DBE2E5FEF730FB1930F1E700F09CF94D
:101B9C003C48FEF7DFFA2023B4F99811B4F99451BC
:101BAC00C022059300230392049302936379354A70
:101BBC000193A379009383B2284600F00FFCFFF742
:101BCC0093FA94F88E31022B03D1002803DA062302
:101BDC002DE7BF280EDD94F89131012B0DD1D4F8EF
:101BEC009431013BC4F89431FEF7FEFA1930C4F875
:101BFC009C01AAE5012B3FF45EAF062384F88C31DF
:101C0C00FEF7F2FA00F57A70F1E73370052384F8E9
:101C1C008C31FEF7E9FAFA30E9E7002000F054F9CC
:101C2C003378DB0716D51748FEF794FA2023B4F95E
:101C3C009451B4F99811C022059300230392049394
:101C4C00029363790F4A0193A379009383B22846D8
:101C5C0000F0C4FBFFF748FAFEF7C6FA3378FA3007
:101C6C000133DBB2062BC4F89C013370AFD86CE5A2
:101C7C00FEF7BAFAD4F89C319842FFF466AD07230C
:101C8C00D5E600BFB4030020014800F05BBC00BFE8
:101C9C000800002010B5FEF7F3FFBDE81040044B20
:101CAC00044A196804484FF4C073FEF74FBB00BFD9
:101CBC00040200200C08014084080020704700003A
:101CCC000E4B82B09A6942F001029A619A6902F055
:101CDC0001020092009ADA6942F08052DA61DB6903
:101CEC00074A03F080530193019B536823F0E06390
:101CFC0043F00073536002B0704700BF0010024005
:101D0C000000014037B503681E4A0546934222D1B4
:101D1C001D4B1E4C9A69204642F400629A619B69E5
:101D2C001B4A03F400630093009B102384E80C000F
:101D3C0000238022A36023616361A3614FF40053ED
:101D4C00E260E361FEF7D2FA08B1FFF7B7FF2C624D
:101D5C00656203B030BDB3F1804FFAD103F50433A3
:101D6C00DA69072142F00102DA61DB69002203F033
:101D7C00010301931C20019BFEF760FA1C20FEF767
:101D8C0091FAE6E7002C0140001002408408002084
:101D9C005800024010B5044686B01022002102A85B
:101DAC0000F021FC22681B4B9A4231D103F55843B9
:101DBC009A6902A942F480429A619A69164802F41F
:101DCC0080420092009A9A69002442F004029A61BF
:101DDC009B6903F004030193019B4FF4007302937E
:101DEC000223039303230593FEF782FB4FF48063D6
:101DFC000293012302A9084804930394FEF778FB8D
:101E0C00252022460821FEF719FA2520FEF74AFA6A
:101E1C0006B010BD00380140000801407047FEE7D5
:101E2C00FEE7FEE7FEE7704770477047FEF7D0B954
:101E3C000148FEF7C9BA00BF840800200148FEF72C
:101E4C0038BF00BFCC0F00200F4B1A6842F00102C4
:101E5C001A6059680D4A0A405A601A6822F0847256
:101E6C0022F480321A601A6822F480221A605A68AE
:101E7C0022F4FE025A604FF41F029A604FF0006287
:101E8C00034B9A60704700BF001002400000FFF83F
:101E9C0000ED00E0034B1A7812B100221A70704763
:101EAC000122FBE71A0300204FF4C052044B1B78AD
:101EBC005A434FF4C07303FB0020024B1844704785
:101ECC001A0300200C100020F0B50F4B00211B78DA
:101EDC0040EAC000002B0CBF4FF4C0540024C0B229
:101EEC000A4D60F07F06002362182A44D054D7189C
:101EFC000233B3F5C07F7E70F8D101F5C071B1F536
:101F0C00C05FF0D1F0BD00BF1A0300200C10002000
:101F1C0038B50024054D20462C70FFF7D5FF012362
:101F2C0020462B70FFF7D0FF2C7038BD1A03002011
:101F3C0030B5154B80B21C78BF28B4FA84F44FEA44
:101F4C0054141FD88BB21F2B1CD80F2901F00F0370
:101F5C0015DC4FF4C0556C434FF4C07505FB0344BE
:101F6C000A4B4100234413F81040144303F810406B
:101F7C00481C195C61F07F010A431A5430BDD20031
:101F8C00D2B2E6E730BD00BF1A0300200C100020CF
:101F9C002DE9F04F95B006939DF878309D4C039346
:101FAC00BDF97C3002EB82020793BDF980302244EC
:101FBC000893BDF984300993BDF988300A93002346
:101FCC00D45C12ADEC540133052BF9D14FF0000960
:101FDC0083B201931F46BDF80C408BB205934FF0B2
:101FEC000008059E12AB13F8093043FA08F3DB071F
:101FFC004DD408F101082644B8F1080FB6B2F1D15E
:10200C0009F101092744B9F1050FBFB2E7D1039BD0
:10201C00012B11D900230293029B23F002039BB2E4
:10202C00012B37D0029B01330293019B23449BB2BB
:10203C000193029B052BEFD115B0BDE8F08F079AE9
:10204C00954212DB089A95420FDC06EB0A01099ABD
:10205C0089B2914209DB0A9A914206DC1846069A2B
:10206C0009B20093FFF764FF009B0AF1010A1FFA03
:10207C008AF2A242E3D30BF1010B1FFA8BF5A542B6
:10208C00B7D23D44ADB22BB24FF0000AD7E74FF0B8
:10209C00000BF2E7059A0093029B0C920B920D92A7
:1020AC000F9212AA13441093029B12AAD35C0493AE
:1020BC00009B013B0E930E9A049B1341DD0716D433
:1020CC00009B013300930F9B23449BB20F930D9BFA
:1020DC0023449BB20D930B9B23449BB20B930C9B01
:1020EC0023449BB20C93009B092BDDD19AE7109BE8
:1020FC0013F8018C0E9B48FA03F3D80729D5109BD3
:10210C0093F801800E9B48FA03F3D907D8D4009BAF
:10211C009D1E48FA05F3DB0700F1A780009B48FAE7
:10212C0003F818F0010FCBD0049D009B1D4115F056
:10213C000105C5D1039B9D42C2DA019BAFB207EBEF
:10214C00030A0F9B1FFA8AFA1F44BFB24FF0000913
:10215C00E8E0009B9D1E48FA05F3DA071BD4009BB0
:10216C0048FA03F818F0010FC9D0049B009A43FAFF
:10217C0002F616F00106C2D1039B9E42BFDA019B08
:10218C00B7B2A3EB070A0B9B1FFA8AFA1F44BFB224
:10219C004FF000095CE0049B43FA05F515F00105CE
:1021AC00DDD1039B9D42DADA019BAFB2A3EB070BA7
:1021BC000C9B1FFA8BFBDF1BBFB24FF0000A1DE01C
:1021CC00079A964212DB089A96420FDC07EB09013C
:1021DC00099A89B2914209DB0A9A914206DC1846A7
:1021EC00069A09B21193FFF7A3FE119B09F101099D
:1021FC001FFA89F2A242E3D30AF1010A1FFA8AF606
:10220C00A64205D25E44B6B233B24FF00009D7E70E
:10221C000135C6E72D280008079B9D4210DB089B63
:10222C009D420DDC07EB0801099B89B2994207DB43
:10223C000A9B994204DC069A09B25846FFF778FECD
:10224C0008F101081FFA88F3A342E5D309F101094B
:10225C001FFA89F5A54206D25544ADB20FFA85FB9B
:10226C004FF00008D8E7013686E7049B43FA05F5E2
:10227C0015F001057FF452AF039B9D42BFF64EAFA4
:10228C00019BAFB207EB030B0D9B1FFA8BFBDF1B04
:10229C00BFB24FF0000A1DE0079A964212DB089A73
:1022AC0096420FDC07EB0901099A89B2914209DBCE
:1022BC000A9A914206DC1846069A09B20E93FFF769
:1022CC0037FE0E9B09F101091FFA89F2A242E3D3F2
:1022DC000AF1010A1FFA8AF6A64205D25E44B6B28A
:1022EC0033B24FF00009D7E70135C5E7079B9E4293
:1022FC0010DB089B9E420DDC07EB0801099B89B2A1
:10230C00994207DB0A9B994204DC069A09B25846AB
:10231C00FFF70EFE08F101081FFA88F3A342E5D37C
:10232C0009F101091FFA89F6A64206D25644B6B243
:10233C000FFA86FB4FF00008D8E70135FAE600BF2C
:10234C0030B51F2487B004940024BF250394019456
:10235C009DF8284002950094FFF71AFE07B030BD97
:10236C002DE9F04F00261446354687B08B469DF874
:10237C0044809DF84010824605911FFA88F101EBCC
:10238C0041004000C9000390049102EB030997B28D
:10239C00E01B4C4580B202D107B0BDE8F08F14F8B9
:1023AC00012B0D2A02D1E51BADB2F1E70A2A06D1A9
:1023BC0014F8023C01360D2BB6B2E9D1F3E7049BBD
:1023CC00401B03FB06B1039BCDF8008000FB03A070
:1023DC0009B2059B00B2FFF7B3FFD9E72DE9F04F27
:1023EC008FB008919DF8601082460991BDF9681074
:1023FC009DF864B00A91BDF96C101D460B91BDF9A6
:10240C0070100C91BDF974100D91002B44D04FF04D
:10241C000008144646461FFA8BF303EB4307DB0018
:10242C00069353197F0007931FFA82F9079BA4EBBD
:10243C0009009C4280B205D107FB05A528B20FB05C
:10244C00BDE8F08F14F8012B0D2A03D1A4EB09067B
:10245C00B6B2EBE70A2A08D114F8023C08F10108DD
:10246C000D2B1FFA88F8E1D1F0E7069B0899801B29
:10247C0003FB08110D9B00FB07A004930C9BCDF8EC
:10248C0000B003930B9B09B202930A9B00B2019319
:10249C00099BFFF77DFDC9E71846D0E7002103E053
:1024AC000B4B5B58435004310A480B4B42189A4271
:1024BC00F6D30A4A02E0002342F8043B084B9A4246
:1024CC00F9D3FFF7C1FC00F05FF8FEF7D3FF7047BC
:1024DC00C02B000800000020E8010020E8010020CB
:1024EC000C400020FEE7B0F88030B0F882200133B9
:1024FC0092B203F07F0393421FBFB0F8802092B2D8
:10250C008154A0F8803070470346B0F88010B0F8C2
:10251C00822089B292B291421FBFB0F8822092B24F
:10252C00805CB3F882200FBFFF20013202F07F02E3
:10253C00A3F88220704783681A68D36843F020039D
:10254C00D360704708B583681A68136813F02003CA
:10255C0006D051680068C9B2FFF7C5FF012008BD5D
:10256C00184608BD0068FFF7CFBF0368B3F88000BA
:10257C00B3F8823080B29BB2C01A18BF01207047EA
:10258C000A22002100F0DCB870B500250C4E0D4C71
:10259C00A41BA410A54209D100F00AF900250A4E8B
:1025AC000A4CA41BA410A54205D170BD56F82530C9
:1025BC0098470135EEE756F8253098470135F2E794
:1025CC00B82B0008B82B0008B82B0008BC2B00084F
:1025DC0010B5431E0A44914200D110BD11F8014BB5
:1025EC0003F8014FF7E703460244934200D17047CA
:1025FC0003F8011BF9E7024610B513461C780132AB
:10260C00002CFAD1013B11F8012B03F8012F002A01
:10261C00F9D110BDC9B2034610F8012B1AB1914281
:10262C00F9D11846704700290CBF18460020704796
:10263C00034611F8012B03F8012B002AF9D170473E
:10264C002DE9F84F8046894692461F468B465D46DB
:10265C000A9815F8014B00F089F82044467816F0DA
:10266C0008060BD12D2C0BD101262C780BF1020571
:10267C0067B1102F14D1302C0AD011E0AB46E6E72D
:10268C002B2C04BF2C780BF10205F1E7302C27D151
:10269C002B7803F0DF03582B4BD110276C780235C5
:1026AC00002E0CBF6FF000414FF000410022B1FB37
:1026BC00F7FE104607FB1E1CA4F13003092B11D8A2
:1026CC001C46A7421DDD531C07D0864516D301D1ED
:1026DC00A44513DB012200FB074015F8014BEBE787
:1026EC000A27DDE7A4F14103192B01D8373CE8E7B1
:1026FC00A4F16103192B04D8573CE2E74FF0FF32E9
:10270C00EBE7531C08D122230846C8F80030BAF175
:10271C00000F07D1BDE8F88F06B14042BAF1000FA7
:10272C000CD022B1013DCAF80050BDE8F88F4D46DF
:10273C00F9E73024002FB3D10827B1E7BDE8F88FB3
:10274C00084B37B51C68084D236A002B08BF2B4675
:10275C00009313460A4601462046FFF771FF03B06B
:10276C0030BD00BF180000207C000020D0F8EC0029
:10277C00704782B001B901A942B14BB113780B601B
:10278C001278101C18BF012002B070471046FBE7EE
:10279C006FF00100F8E749B1FF2A8BBF8A230A705A
:1027AC000360012088BF4FF0FF3070470846704728
:1027BC00F8B500BFF8BC08BC9E467047F8B500BF22
:0827CC00F8BC08BC9E467047F2
:1027D40002030405060708090A0B0C0D0E0F10105E
:1027E40052455350415449005054204B455245548E
:1027F400412041504920494E444F4E4553494120C0
:10280400285045525345524F290024525445585498
:102814000000000000000000000102030406070895
:1028240009000000000102030400000000003E5BF8
:102834004F5B3E3E6B4F6B3E1C3E7C3E1C183C7E09
:102844003C181C577D571C1C5E7F5E1C00183C18EE
:1028540000FFE7C3E7FF0018241800FFE7DBE7FFEA
:1028640030483A060E2629792926407F0505074077
:102874007F05253F5A3CE73C5A7F3E1C1C08081C38
:102884001C3E7F14227F22145F5F005F5F06097F76
:10289400017F006689956A606060606094A2FFA20F
:1028A4009408047E040810207E201008082A1C08BE
:1028B400081C2A08081E101010100C1E0C1E0C30C8
:1028C400383E3830060E3E0E0600000000000000C0
:1028D4005F00000007000700147F147F14242A7F80
:1028E4002A1223130864623649562050000807034D
:1028F40000001C2241000041221C002A1C7F1C2ACB
:1029040008083E080800807030000808080808001D
:102914000060600020100804023E5149453E004218
:102924007F400072494949462141494D33181412E8
:102934007F1027454545393C4A4949314121110910
:10294400073649494936464949291E000014000002
:10295400004034000000081422411414141414001C
:102964004122140802015909063E415D594E7C1268
:1029740011127C7F494949363E414141227F414100
:10298400413E7F494949417F090909013E4141517D
:10299400737F0808087F00417F41002040413F01C8
:1029A4007F081422417F404040407F021C027F7F09
:1029B4000408107F3E4141413E7F090909063E411A
:1029C40051215E7F09192946264949493203017F6D
:1029D40001033F4040403F1F2040201F3F403840FC
:1029E4003F631408146303047804036159494D4395
:1029F400007F4141410204081020004141417F040D
:102A040002010204404040404000030708002054F3
:102A14005478407F28444438384444442838444453
:102A2400287F385454541800087E090218A4A49C22
:102A3400787F0804047800447D40002040403D0035
:102A44007F1028440000417F40007C047804787C97
:102A5400080404783844444438FC182424181824FE
:102A64002418FC7C08040408485454542404043FE7
:102A740044243C4040207C1C2040201C3C403040EE
:102A84003C44281028444C9090907C4464544C441A
:102A940000083641000000770000004136080008B5
:102AA400040810083C2623263C4300504F53495841
:102AB400002E00002020202020202020202828284C
:102AC40028282020202020202020202020202020F2
:102AD400202020208810101010101010101010103A
:102AE400101010100404040404040404040410105A
:102AF40010101010104141414141410101010101F7
:102B040001010101010101010101010101010110A2
:102B140010101010104242424242420202020202CB
:102B24000202020202020202020202020202021073
:102B34001010102000000000000000000000000041
:102B44000000000000000000000000000000000081
:102B54000000000000000000000000000000000071
:102B64000000000000000000000000000000000061
:102B74000000000000000000000000000000000051
:102B84000000000000000000000000000000000041
:102B94000000000000000000000000000000000031
:102BA4000000000000000000000000000000000021
:042BB400000000001D
:042BB80031010008DF
:042BBC000D010008FF
:102BC000010000001000000010020020960200200A
:102BD0002C0300200024F4001C0000200000000052
:102BE00000000000000000000000000000000000E5
:102BF00000000000000000000000000000000000D5
:102C000000000000000000000000000000000000C4
:102C100000000000000000000000000000000000B4
:102C200000000000000000000000000000000000A4
:102C30000000000000000000000000004300000051
:102C40000000000000000000000000000000000084
:102C50000000000000000000000000004300000031
:102C60000000000000000000000000000000000064
:102C70000000000000000000000000004300000011
:102C80000000000000000000000000000000000044
:102C900000000000000000000000000043000000F1
:102CA0000000000000000000000000000000000024
:102CB00000000000000000000000000043000000D1
:102CC0000000000000000000000000000000000004
:102CD00000000000000000000000000043000000B1
:102CE00000000000000000000000000000000000E4
:102CF0000000000000000000000000004300000091
:102D000000000000000000000000000000000000C3
:102D1000000000000000000000000000A3270008E1
:102D20007F27000800000000B72A0008B52A000825
:102D30000D2800080D2800080D2800080D2800089F
:102D40000D2800080D2800080D2800080D2800088F
:102D50000D280008FFFFFFFFFFFFFFFFFFFFFFFF42
:102D6000FFFF0000010041534349490000000000FB
:102D70000000000000000000000000000000000053
:102D800000000000000041534349490000000000DA
:102D90000000000000000000000000000000000033
:082DA00000000000000000002B
:04000005080024A922
:00000001FF
